:020000040800F2
:1000000078080020C9240008770200087902000857
:100010007D0200088102000885020008000000003F
:100020000000000000000000000000008B0200083B
:1000300089020008000000008D0200088F020008FD
:100040009102000893020008950200089702000838
:10005000990200089B0200089D0200089F02000808
:100060003F0200085B020008A1020008A30200088A
:10007000A5020008A7020008A9020008AB020008B8
:10008000AD020008AF020008B1020008B302000888
:10009000B5020008B7020008B902000823020008F0
:1000A000BB020008BD020008BF020008C102000830
:1000B000C3020008C5020008C7020008C902000800
:1000C000CB020008CD020008CF020008D1020008D0
:1000D000D3020008D5020008D7020008D9020008A0
:1000E000DB020008DD020008DF020008E102000870
:1000F000E3020008E5020008E7020008E902000840
:10010000EB020008ED020008EF020008F10200080F
:10011000F3020008F5020008F7020008F9020008DF
:10012000FB020008FD020008FF02000801030008AE
:1001300000F002F800F03CF80AA090E8000C8244BD
:100140008344AAF10107DA4501D100F031F8AFF29A
:10015000090EBAE80F0013F0010F18BFFB1A43F0A5
:1001600001031847F04B0700104C0700103A24BF5A
:1001700078C878C1FAD8520724BF30C830C144BF0C
:1001800004680C607047000000230024002500264E
:10019000103A28BF78C1FBD8520728BF30C148BFEA
:1001A0000B6070471FB5AFF300801FBD10B510BDC9
:1001B00003F03FFC1146FFF7F5FF00F007F803F0EE
:1001C0005DFCFFF7F3FF03F063FC000010B501F0E6
:1001D00084FA0121080203F01CFA01F0A0FA00F0F1
:1001E00037F901F001FB01F02FFB01F0C6FA002006
:1001F000054908700120054908700548054908604F
:1002000000F0A0FD00BFFEE700000020010000207C
:100210003E9D02080400002000E0401E0028FCD1A2
:10022000704710B5402002F0EDF938B13548FFF7BE
:10023000F3FF402002F0F7F901F05AF910BD10B5B4
:10024000042002F0DFF938B12F48FFF7E5FF042062
:1002500002F0E9F901F0DEF910BD10B5082002F056
:10026000D1F938B12848FFF7D7FF082002F0DBF9B1
:1002700001F017FA10BD704700BFFEE700BFFEE7B0
:1002800000BFFEE700BFFEE770477047704770474A
:1002900070477047704770477047704770477047A6
:1002A0007047704770477047704770477047704796
:1002B0007047704770477047704770477047704786
:1002C0007047704770477047704770477047704776
:1002D0007047704770477047704770477047704766
:1002E0007047704770477047704770477047704756
:1002F0007047704770477047704770477047704746
:1003000070470000FFFF0F00FFFF0A00FC4A10804B
:1003100070474FF0C042108070474FF0C0431880C4
:10032000F74B1980704700B52220FFF7F2FF00BDA0
:1003300000E0401E0028FCD170470146002000BFAD
:1003400001E0491C401C0A78002AFAD1704708B520
:1003500001217D2003F06AF94020ADF8000028203B
:100360008DF803006946E74802F0DAFC0C20ADF88E
:10037000000003208DF8020004208DF80300694678
:10038000E14802F0CDFC4CF20370ADF80000032010
:100390008DF8020018208DF803006946DB4802F052
:1003A000BFFC4FF68070ADF8000003208DF802000E
:1003B00018208DF803006946D34802F0B1FC0220F2
:1003C000ADF8000003208DF8020010208DF8030026
:1003D0006946CF4802F0A4FC4FF40050ADF800008D
:1003E00003208DF8020010208DF803006946C748ED
:1003F00002F096FC4FF40B60ADF8000003208DF87E
:10040000020018208DF803006946C04802F088FCFD
:100410004FF44070ADF8000003208DF8020010206A
:100420008DF803006946B74802F07AFC0320ADF866
:1004300000008DF8020010208DF803006946B248D4
:1004400002F06EFC4FF40051B04802F010FD08BD00
:1004500010B5FFF77CFF0221AD4802F00AFDAD4860
:10046000FFF766FF0221AA4802F001FDA948FFF745
:100470005FFF43F20801E320FFF74FFF1221E7205F
:10048000FFF74BFF41F23121EF20FFF746FF4FF41A
:1004900080710120FFF741FF4FF4E0610220FFF778
:1004A0003CFF41F238010320FFF737FF0021042011
:1004B000FFF733FF40F20E210820FFF72EFF002147
:1004C0000920FFF72AFF00210A20FFF726FF00215D
:1004D0000C20FFF722FF00210D20FFF71EFF002157
:1004E0000F20FFF71AFF00211020FFF716FF07214A
:1004F0001120FFF712FF00211220FFF70EFF00214D
:100500001320FFF70AFF8448FFF712FF41F2902102
:100510001020FFF702FF40F221211120FFF7FDFE1E
:100520007D48FFF705FF1A211220FFF7F6FE7A48F3
:10053000FFF7FEFE4FF4B0511320FFF7EEFE22212D
:100540002920FFF7EAFE0A212B20FFF7E6FE72487A
:10055000FFF7EEFE00212020FFF7DFFE0021212023
:10056000FFF7DBFE00213020FFF7D7FE40F202311B
:100570003120FFF7D2FE40F202213220FFF7CDFEFC
:1005800040F203113520FFF7C8FE40F60C0136207B
:10059000FFF7C3FE40F205513720FFF7BEFE40F2E1
:1005A00004513820FFF7B9FE40F207713920FFF7F8
:1005B000B4FE40F201313C20FFF7AFFE41F20801EA
:1005C0003D20FFF7AAFE00215020FFF7A6FEEF21F5
:1005D0005120FFF7A2FE00215220FFF79EFE40F2BD
:1005E0003F115320FFF799FE4FF41C516020FFF795
:1005F00094FE01216120FFF790FE00216A20FFF7A1
:100600008CFE00218020FFF788FE00218120FFF76B
:1006100084FE00218220FFF780FE00218320FFF767
:100620007CFE00218420FFF778FE00218520FFF763
:1006300074FE10219020FFF770FE4FF4C0619220ED
:10064000FFF76BFE03219320FFF767FE4FF48871DD
:100650009520FFF762FE00219720FFF75EFE002144
:100660009820FFF75AFE40F233110720FFF755FE9E
:1006700010BD2A49088070472849891C08807047A6
:10068000A2F12003DAB27047F0B504460D46002609
:10069000002709E02A782146F8B2FFF7F1FF07F1B9
:1006A000100087B26D1C761C287808B1012000E08C
:1006B00000200F2E01D2012100E000210842E9D1E3
:1006C000F0BD10B5044616A12046FFF7DDFF10BDB2
:1006D00030B504460D4621462020FFF71EFE294670
:1006E0002120FFF71AFE30BD30B50546002440F248
:1006F0003F110020FFF7ECFFFFF715FE00BF1FE0E2
:1007000000000260000C014000180140001401408C
:1007100000100140FFFF0500FFFF0A000C00002051
:1007200020202020202020202020202020202020C9
:1007300020202020000000002846FFF7E7FD641C71
:10074000B4F5963FF8D38020FF49086030BD2DE90D
:10075000F04304460D4616460027B846B94605F054
:10076000FF0949462046FFF7B3FF00BF26E0FFF729
:10077000DAFD4FF0000812E036F81710012000FAF9
:1007800008F0014204D1F1480088FFF7BFFD04E002
:10079000EE48801E0088FFF7B9FD08F10108B8F1A6
:1007A000100FE9D38020E849086009F1010000F04A
:1007B000FF0949462046FFF78BFF7F1C182FD6D331
:1007C000BDE8F0832DE9F05F04460D4600260027C2
:1007D000B046B14640F23F1AB3462846FFF7ADFD9A
:1007E0008346BBF1C80F0BD951462046FFF770FF77
:1007F0002046FFF766FFD6A12046FFF745FF3DE004
:1008000040F23F112046FFF763FF32E0B8F1140FCA
:100810001AD12878202801D16D1C0EE0002606E0B0
:100820002022B9B22046FFF72BFF103F761C4E4521
:10083000F6D3A9F101002D1A834404F11800C4B2C3
:1008400040F23F1A4FF000082A7851462046FFF741
:1008500017FF08F10108AAF110001FFA80FA6D1CB9
:1008600009F101092878202803D14FF00009AAF1E5
:1008700010075FEA0B00ABF1010BC7D1BDE8F09F99
:10088000F0B504460D4616461F4621465020FFF798
:1008900044FDA019411E5120FFF73FFD294652207B
:1008A000FFF73BFDE819411E5320FFF736FD2946AF
:1008B0002046FFF70DFFF0BD00B540F23F13EF22D9
:1008C00000210846FFF7DCFF00BD00B50346FFF737
:1008D0002AFD1846FFF71AFD80209B49086000BDDD
:1008E0002DE9F04104460D46164698460027294654
:1008F0002046FFF7EDFEB8F1000F0FD1FFF713FD13
:1009000000BF05E09148801E0088FFF7FFFC7F1CB8
:10091000B742F7D380208C4908600FE000270BE036
:100920008A48801E0088FFF7D0FF681C85B22946E0
:100930002046FFF7CDFE7F1CB742F1D3BDE8F08122
:10094000F0B504460D4617461E4600233A46294692
:100950002046FFF7C5FFA81981B200233A4620467A
:10096000FFF7BEFF0123324629462046FFF7B8FFB6
:10097000E119491EC8B2012332462946FFF7B0FFEC
:10098000F0BD2DE9F04304460D4616461F46DDF83E
:100990001C803B46324629462046FFF771FFFFF791
:1009A000C2FC00BF0DE0B14606E04046FFF7AEFCDA
:1009B000A9F1010000F0FF09B9F1000FF5DC781E84
:1009C00087B2002FEFDC80205F490860FFF774FFDB
:1009D000BDE8F0832DE9F04704460D4616461F4654
:1009E0000320A0EB46084FF00009B24669E005EB92
:1009F0000A0291B204EB0902D0B2FFF769FEB8B265
:100A0000FFF763FFA5EB0A0291B204EB0902D0B233
:100A1000FFF75EFEB8B2FFF758FF05EB0A0291B28E
:100A2000A4EB0902D0B2FFF753FEB8B2FFF74DFFB7
:100A3000A5EB0A0291B2A4EB0902D0B2FFF748FE7F
:100A4000B8B2FFF742FF05EB090291B204EB0A02CC
:100A5000D0B2FFF73DFEB8B2FFF737FFA5EB0902B2
:100A600091B204EB0A02D0B2FFF732FEB8B2FFF740
:100A70002CFF05EB090291B2A4EB0A02D0B2FFF7FA
:100A800027FEB8B2FFF721FFA5EB090291B2A4EB54
:100A90000A02D0B2FFF71CFEB8B2FFF716FFB8F19A
:100AA000000F04DA062000EB8900804407E0A9EB80
:100AB0000A000A2101EB80008044AAF1010A09F131
:100AC0000109D14593D9BDE8F08730B5034600252B
:100AD0000024FFF728FC00BF14E000240FE0585D5D
:100AE0000121A140084204D118480088FFF70EFCFC
:100AF00004E01648801E0088FFF708FC641C082CE0
:100B0000EDD36D1C41F298708542E6D380200E49EA
:100B1000086030BD704770477047F0B504460D4619
:100B200016461F4621462020FFF7F7FB29462120C5
:100B3000FFF7F3FB21465020FFF7EFFB2946522039
:100B4000FFF7EBFB31460FE0101401400E000020D0
:100B5000202020537472696E6720746F6F206C6F51
:100B60006E672020000000005120FFF7D6FB3946B9
:100B70005320FFF7D2FBFFF7D6FBF0BD704770475D
:100B800070472DE9F04704460D4616461F46DDF82E
:100B900020903B46324629462046FFF771FE4FF033
:100BA000000A0FE0012101EB4A0019F800004FEAAA
:100BB000002819F81A0040EA08084046FFF7A6FB8B
:100BC0000AF1010A06FB07F05045EBD8BDE8F087B3
:100BD00000E0401E0028FCD1704770B504460D4669
:100BE000164629462020FFF798FB21462120FFF7D3
:100BF00094FB2220FFF78DFB3046FFF787FB70BD8B
:100C00002DE9F84F04460D4616461F460020009079
:100C100080468146009044E04FF00009CA4609E052
:100C200016F80A0040EA09094FEA09290AF1010009
:100C300000F0FF0ABAF1030FF2DB16F80A0040EAEF
:100C400009094FF0000825E0C8F1200029FA00F05A
:100C500010F0010F12D00320B8FBF0F100FB11805F
:100C60000099484378431FFA80FB621891B205EB64
:100C7000080290B25A46FFF7B0FF09E0009A2244FA
:100C800091B205EB080290B20A9A92B2FFF7A5FF63
:100C900008F10108B8F1200FD6D3361D0098401C8A
:100CA000009000982028B7D3BDE8F88F2DE9F05FB9
:100CB00004460D4616461F464FF00008C146C24680
:100CC00000BF3AE04FF0000AD34609E016F80B00E7
:100CD00040EA0A0A4FEA0A2A0BF1010000F0FF0B72
:100CE000BBF1020FF2DB16F80B0040EA0A0A4FF0E4
:100CF00000091CE0C9F118002AFA00F010F0010FF9
:100D000009D004EB080291B205EB090290B2BAB225
:100D1000FFF763FF09E004EB080291B205EB09025B
:100D200090B20A9A92B2FFF758FF09F10109B9F19E
:100D3000180FDFD3F61C08F10108B8F1180FC1D362
:100D4000BDE8F09F08B54EF25550FFF7CDFC4EF2CE
:100D5000555300934FF47843FF4AD7213420FFF7CF
:100D60004FFF4EF2555300934FF6E073FA4A80322C
:100D7000D7215620FFF744FF4EF2555300934FF60C
:100D80001F03F64AD7217820FFF73AFF4EF255535A
:100D900000934FF4FC63F14A8032D7219A20FFF789
:100DA0002FFF4EF25553009340F21F53EC4AAA21F5
:100DB0002420FFF77BFF4EF25553009340F21F5360
:100DC000E74A4832AA213C20FFF770FF4EF2555304
:100DD000009340F21F53E24A9032AA215420FFF7B9
:100DE00065FF4EF25553009340F21F53DC4AAA218F
:100DF0008420FFF75BFF4EF25553009340F21F53E0
:100E0000D74AD832AA219C20FFF750FF4EF2555303
:100E1000009340F21F53D34AAA21B420FFF746FFA4
:100E20004EF25553009340F21F53CE4A483286216A
:100E30002420FFF73BFF4EF25553009340F21F531F
:100E4000C84A903286213C20FFF730FF4EF25553BE
:100E5000009340F21F53C34AD83286215420FFF733
:100E600025FF4EF25553009340F21F53BC4A862192
:100E70008420FFF71BFF4EF25553009340F21F539F
:100E8000B94A8621B420FFF711FF4FF4BC630093E9
:100E9000282348223F215620FFF773FD4EF25003CE
:100EA00000931F23B14A43215A20FFF7A9FE4EF2B7
:100EB000500300931F23AD4A803243217A20FFF76D
:100EC0009FFE08BD38B504464EF2555300931823D3
:100ED000F02200210846FFF754FD002C3ED0012CE3
:100EE00015D0022C4ED14EF2555300931F23A04A29
:100EF00000216020FFF7DAFE4EF2555300931F23C6
:100F00009B4A483200217820FFF7D0FE00BF4EF206
:100F1000555300931F23974A00210846FFF7C6FE4A
:100F20004EF2555300931F23924A48320021182055
:100F3000FFF7BCFE4EF2555300931F238E4A00214B
:100F4000C020FFF7B3FE4EF2555300931F238A4A89
:100F500048320021D820FFF7A9FE13E04EF2555386
:100F600000931F23834A00210846FFF79FFE4EF29D
:100F7000555300931F237F4A483200211820FFF762
:100F800095FE00BF00BF38BD38B504460D46062D9E
:100F90002AD2DFE805F0C1032A4F759B4FF61F03E5
:100FA00000931B234D2284210020FFF7EAFC4FF41D
:100FB000FC6300930023714A85210220FFF776FE2F
:100FC0004FF4FC63009300236C4A483285211A20B9
:100FD000FFF76CFE4FF4FC6300930023674A9032E6
:100FE00085213220FFF762FE96E04FF61F03009343
:100FF0001B234D2269210020FFF7C3FC4FF4FC6343
:10100000009300235E4A6A210220FFF74FFE4FF44F
:10101000FC63009300235B4A6A211A20FFF746FE17
:101020004FF4FC63009300234D4A6A213220FFF7FE
:101030003DFE71E04FF61F0300931B234D224E210E
:101040000020FFF79EFC4FF4FC63009300234C4A02
:101050004F210220FFF72AFE4FF4FC630093002388
:10106000484A48324F211A20FFF720FE4FF4FC6314
:10107000009300233A4A4F213220FFF717FE4BE03E
:101080004FF61F0300931B234D2233210020FFF74F
:1010900078FC4FF4FC6300930023394A342102208A
:1010A000FFF704FE4FF4FC6300930023354A9032AF
:1010B00034211A20FFF7FAFD4FF4FC63009300235C
:1010C000274A34213220FFF7F1FD25E04FF61F03B8
:1010D00000931B234D2218210020FFF752FC4FF4F0
:1010E000FC6300930023284A19210220FFF7DEFD4C
:1010F0004FF4FC6300930023244A19211A20FFF7C0
:10110000D5FD4FF4FC63009300231F4A4832192198
:101110003220FFF7CBFD00BF00BF062C46D2DFE830
:1011200004F0DD03466B91B74EF2555300931B2339
:101130004D2284210020FFF724FC40F21F5300932E
:1011400000230E4A85210220FFF7B0FD40F21F5315
:1011500000930023094A1BE0EE3A0008EE3B00082A
:10116000EE3C00080E3E00082E3F0008763F0008C7
:10117000AE4400080641000876400008D643000847
:10118000FE4200082642000846430008A63A00082E
:10119000483285211A20FFF789FD40F21F53009342
:1011A0000023FB4A85213220FFF780FD96E04EF2B6
:1011B000555300931B234D2269210020FFF7E1FBCB
:1011C00040F21F5300930023F24A6A210220FFF7E6
:1011D0006DFD40F21F5300930023EF4A6A211A204D
:1011E000FFF764FD40F21F5300930023EB4A6A218E
:1011F0003220FFF75BFD71E04EF2555300931B2345
:101200004D224E210020FFF7BCFB40F21F530093FC
:101210000023E04A4F210220FFF748FD40F21F5310
:1012200000930023DC4A48324F211A20FFF73EFD8D
:1012300040F21F5300930023D84A4F213220FFF77A
:1012400035FD4BE04EF2555300931B234D223321C5
:101250000020FFF796FB40F21F5300930023CD4A76
:1012600034210220FFF722FD40F21F530093002398
:10127000C94A903234211A20FFF718FD40F21F535B
:1012800000930023C54A34213220FFF70FFD25E0EB
:101290004EF2555300931B234D2218210020FFF7D7
:1012A00070FB40F21F5300930023BD4A1921022016
:1012B000FFF7FCFC40F21F5300930023B94A1921A9
:1012C0001A20FFF7F3FC40F21F5300930023B44AA7
:1012D000483219213220FFF7E9FC00BF00BF284641
:1012E00038BD08B54EF2555300931B234D221821EB
:1012F0000020FFF746FB40F21F5300930023A84A4B
:1013000019210220FFF7D2FC40F21F530093002363
:10131000A44A19211A20FFF7C9FC40F21F53009379
:1013200000239F4A483219213220FFF7BFFC4FF4B7
:101330007A70FFF74DFC4EF2555300931B234D225C
:1013400033210020FFF71DFB40F21F5300930023C1
:10135000904A34210220FFF7A9FC40F21F5300936A
:1013600000238D4A903234211A20FFF79FFC40F26F
:101370001F5300930023894A34213220FFF796FC43
:101380004FF47A70FFF724FC4EF2555300931B2361
:101390004D224E210020FFF7F4FA40F21F53009334
:1013A00000237C4A4F210220FFF780FC40F21F53AC
:1013B00000930023784A48324F211A20FFF776FC29
:1013C00040F21F5300930023744A4F213220FFF74D
:1013D0006DFC4FF47A70FFF7FBFB4EF25553009310
:1013E0001B234D2269210020FFF7CBFA40F21F5347
:1013F00000930023674A6A210220FFF757FC40F25E
:101400001F5300930023644A6A211A20FFF74EFC01
:1014100040F21F5300930023604A6A213220FFF7F5
:1014200045FC4FF47A70FFF7D3FB4EF2555300930F
:101430001B234D2284210020FFF7A3FA40F21F5303
:1014400000930023524A903A85210220FFF72EFC98
:1014500040F21F53009300234D4A483A85211A2039
:10146000FFF724FC40F21F5300930023484A8521D4
:101470003220FFF71BFC08BD704710B500F0D2FD0D
:1014800049490860012049490870FFF71BFD012008
:101490004749087010BD10B500F000FB42490860D4
:1014A000012042490870FFF70DFD012040490870F6
:1014B00010BD10B500F081FA3B49086001203B499E
:1014C0000870FFF7FFFC01203949087010BD10B506
:1014D0003548006800F08DFF0120FFF7F3FC012084
:1014E00032490870FFF7EEFC01203149087010BD49
:1014F00010B52F4800780B2811D2DFE800F0061154
:10150000123139415D656D757D0000F08BFD294913
:1015100008600120FFF7D6FC01202549087077E01C
:1015200076E022480078062818D2DFE800F017039A
:101530000B0E111400F007FA1B49086003201C4928
:1015400008700BE0FFF799FF08E0FFF7A4FF05E044
:10155000FFF7AFFF02E0FFF7BAFF00BF00BF57E0A1
:1015600000F00EFA104908600420114908704FE09D
:1015700000F0FBFA0C49086005200D49087047E0AF
:1015800000F08CFB084908600620094908703FE01C
:1015900066440008FE42000826420008EE3C0008AF
:1015A00046430008A63A000804000020010000207D
:1015B000000000200800002000F036FC42490860CE
:1015C00007204249087023E000F06DFC3E490860A6
:1015D00008203E4908701BE000F02AFA3A490860EA
:1015E00009203A49087013E000F036FE36490860D9
:1015F0000A20364908700BE000F0BDFE3249086051
:1016000001203249087032490870FFF75BFC00BFC7
:1016100000BF10BD10B52D4800780A283FD2DFE882
:1016200000F00506173031323334353637E002200A
:10163000FFF748FCFFF755FE25490978491EC8B257
:1016400023490978FFF7A0FC02202049087026E012
:101650001F480078401C1E4908700846007806287C
:1016600006D10120087001210520FFF78DFC07E05D
:1016700017490978491EC8B215490978FFF784FC53
:101680000DE000BF00BF00BF00BF00BF00BF0120D2
:101690000E4908700E490870FFF714FC00BF00BF28
:1016A00010BD10B5002009490870012008490870D4
:1016B00008480068044908604EF25550FFF714F8D6
:1016C000FFF740FB10BD00000400002000000020D8
:1016D0000100002008000020704710B58148006814
:1016E00040F001007F490860084640687E49084094
:1016F0007C494860084600687C4908407949086090
:101700000846006820F4802008600846406820F4FD
:10171000FE00486000208860FFF7DEFF10BD00B5C6
:1017200097B0022001900020029005200390002035
:101730000490059006904FF080500790002008908C
:10174000099008200A9010200B9000200C900D901A
:101750000E900F904FF48050109000201190129036
:10176000149001A81590169008A800F0B4FF01216C
:10177000002001F01DF917B000BD08B54FF4A060BE
:1017800001F03BFC17208DF8000000208DF80100CF
:101790008DF8020001208DF80300684601F033FC4B
:1017A0004FF4E06001F029FC08208DF800000020D3
:1017B0008DF801008DF8020001208DF803006846C5
:1017C00001F021FC4FF4C06001F017FC09208DF8F6
:1017D000000001208DF801008DF802008DF8030053
:1017E000684601F010FC08BD1CB50221042001F080
:1017F00095FB0321042001F091FB082000F013FF6A
:10180000042000F010FF0C20009000208DF8040050
:1018100008208DF8050001208DF80600684600F0CC
:1018200075FE0621012001F079FB40200090002088
:101830008DF804000C208DF8050001208DF80600BD
:10184000684600F063FE1CBD00B587B001210803A7
:1018500001F0ECFE0121042001F0E8FEE020ADF8EB
:10186000040003208DF8060018208DF8070001A958
:101870001F4801F055FA1020ADF8040003208DF840
:10188000060010208DF8070001A9194801F048FA58
:101890001021174801F0EBFA0020ADF808004FF4D2
:1018A0008270ADF80A000020ADF80C000220ADF8FF
:1018B0000E000120ADF810004002ADF81200182013
:1018C000ADF814000020ADF816000720ADF81800A0
:1018D00002A9084801F03AFF0121064801F0CEFFB5
:1018E00007B000BD001002400000FFF8FFFFF6FE49
:1018F000000801400030014000E0401E0028FCD1FB
:10190000704700B502461046FFF7F6FF1046FFF796
:10191000F3FF1046FFF7F0FF1046FFF7EDFF00BDA5
:101920002DE9F04104460D46164606EB4500401CE5
:10193000205C070206EB4500205C07433846FEF7B3
:10194000E5FCBDE8F08110B541F238010320FEF757
:10195000E4FC40F23F13EF2200210846FFF7DDF8D8
:10196000002408E000222146FF48FFF7D9FF0F209E
:10197000FFF7C2FF641CB4F5963FF3DBFA4810BDD5
:1019800010B541F208010320FEF7C7FC40F23F13F7
:10199000EF2200210846FFF7C0F84FF4963408E024
:1019A00000222146F148FFF7BBFF0F20FFF7A4FFFD
:1019B000641E002CF4DCED4810BD70B541F2380116
:1019C0000320FEF7AAFC00252EE0002429E005EB09
:1019D00085004000C0F5A07305EB85004000C0F510
:1019E0009B7122462046FFF798F805EB85004000E2
:1019F000C0F59B7004EB840100EB811605E000222A
:101A00003146DB48FFF78CFF761C05EB8500400074
:101A1000C0F5A0704FF4A07101FB0400B042EEDAF3
:101A2000641CF02CD3DB6D1C202DCEDBD04870BDA8
:101A300070B541F238010320FEF76FFC002529E064
:101A4000002624E005EB8500400000F10A0305EBC9
:101A50008500410032463046FFF75FF805EB850010
:101A6000400006EB860100EB811405E000222146D0
:101A7000BD48FFF755FF641C05EB850040000A30A8
:101A80004FF4A07101FB0600A042EFDA761CF02EA5
:101A9000D8DB6D1C202DD3DBB34870BD2DE9F041A0
:101AA00041F238010320FEF738FC002658E006EB2F
:101AB00086010A2303EB410206EB8601480040F24F
:101AC0003F130021FFF729F84FF4486006FB00F4AC
:101AD00005E000222146A548FFF722FF641C06EB23
:101AE000C60000EB06104FF4486101EBC010A042A5
:101AF000EFDC00252EE006EB86077F00C7F5A0731C
:101B000005F10A0206EB86077F00C7F59B711046B8
:101B1000FFF703F806EB86004000C0F59B7105F166
:101B20000A0000EB800001EB801405E00022214652
:101B30008E48FFF7F5FE641C06EB86004000C0F5FA
:101B4000A07105F10A004FF4A07202FB0010A04240
:101B5000ECDA6D1CE62DCEDBAF20FFF7CDFE761C58
:101B6000182EA4DB8148BDE8F08170B541F2380140
:101B70000320FEF7D2FB00258BE040F23F132A46FC
:101B800000212846FEF7C9FF002407E005EB850089
:101B9000C20121467648FFF7C3FE641CB4F5A07F5E
:101BA000F4DB05F1280040F23F1302460021FEF766
:101BB000B4FF002409E005F1280000EB8000C20119
:101BC00021466B48FFF7ACFE641CB4F5A07FF2DB46
:101BD00040F23F1305F1500200211046FEF79DFF31
:101BE000002409E005F1500000EB8000C20121460D
:101BF0005F48FFF795FE641CB4F5A07FF2DB40F26E
:101C00003F1305F1780200211046FEF786FF0024FD
:101C100009E005F1780000EB8000C201214654483C
:101C2000FFF77EFE641CB4F5A07FF2DB40F23F13A9
:101C300005F1A00200211046FEF76FFF002409E025
:101C400005F1A00000EB8000C20121464848FFF7E3
:101C500067FE641CB4F5A07FF2DB40F23F1305F190
:101C6000C80200211046FEF758FF002409E005F1E4
:101C7000C80000EB8000C20121463D48FFF750FE3E
:101C8000641CB4F5A07FF2DB4FF6FF70FFF734FE63
:101C90006D1C282DFFF671AF354870BD2DE9F04160
:101CA00041F238010320FEF738FB18270026B5E083
:101CB00006EB86010A2303EB410206EB860148008E
:101CC00040F23F130021FEF728FF4FF4486006FB67
:101CD00000F405E0002221462348FFF721FE641CA2
:101CE00006EBC60000EB06104FF4486101EBC01094
:101CF000A042EFDC002530E006EB860C4FEA4C0CEE
:101D0000CCF5A07305F10A0206EB860C4FEA4C0CE9
:101D1000CCF59B711046FEF700FF06EB86004000F5
:101D2000C0F59B7105F10A0000EB800001EB801407
:101D300005E0002221460C48FFF7F2FD641C06EB8B
:101D400086004000C0F5A07105F10A004FF4A072B2
:101D500002FB0010A042ECDA6D1CE62DCCDB7F1EEE
:101D600007EB87010A2305E03E9D02083EF50408C3
:101D70003E45000803EB410207EB8701480040F2B3
:101D80003F130021FEF7C9FE4FF4486007FB00F443
:101D900005E000222146FD48FFF7C2FD641C07EB69
:101DA000C70000EB07104FF4486101EBC010A042E0
:101DB000EFDC00252BE006EB860C4FEA4C0C0CF117
:101DC0000A0305F10A0206EB860C4FEA4C011046A5
:101DD000FEF7A3FE06EB8600410005F10A0000EBCA
:101DE000800001EB801405E000222146E748FFF760
:101DF00097FD641C06EB860041000A3105F10A00DC
:101E00004FF4A07202FB0010A042EDDA6D1CE62D2B
:101E1000D1DB4AF6FF70FFF76FFD761C0C2EFFF644
:101E200047AFDA48BDE8F08170B541F238010320D0
:101E3000FEF773FA002432E004F17802104640F213
:101E40003F130021FEF769FE002509E004F1780048
:101E500000EB8000C2012946CD48FFF761FD6D1CF3
:101E6000B5F5A07FF2DBC4F17702C4F1770040F250
:101E70003F130021FEF751FE002509E0C4F1780070
:101E800000EB8000C2012946C148FFF749FD6D1CE7
:101E9000B5F5A07FF2DBFF20FFF72EFD641C772C49
:101EA000CADBBB4870BD2DE9F04141F23801032087
:101EB000FEF733FA0C270C26AEE006EB86010A2368
:101EC00003EB410206EB8601480040F23F1300217C
:101ED000FEF723FE4FF4486006FB00F405E0002205
:101EE0002146AC48FFF71CFD641C06EBC60000EB66
:101EF00006104FF4486101EBC010A042EFDC002552
:101F000030E006EB860C4FEA4C0CCCF5A07305F1E3
:101F10000A0206EB860C4FEA4C0CCCF59B7110467E
:101F2000FEF7FBFD06EB86004000C0F59B7105F156
:101F30000A0000EB800001EB801405E0002221463E
:101F40009448FFF7EDFC641C06EB86004000C0F5EA
:101F5000A07105F10A004FF4A07202FB0010A0422C
:101F6000ECDA6D1CE62DCCDB7F1C07EB87010A2326
:101F700003EB410207EB8701480040F23F130021C9
:101F8000FEF7CBFD4FF4486007FB00F405E00022AC
:101F900021468048FFF7C4FC641C07EBC70000EB38
:101FA00007104FF4486101EBC010A042EFDC0025A0
:101FB0002BE006EB860C4FEA4C0C0CF10A0305F102
:101FC0000A0206EB860C4FEA4C011046FEF7A5FD0F
:101FD00006EB8600410005F10A0000EB800001EBF2
:101FE000801405E0002221466A48FFF799FC641C32
:101FF00006EB860041000A3105F10A004FF4A07299
:1020000002FB0010A042EDDA6D1CE62DD1DB4AF692
:10201000FF70FFF771FC761E002EBFF64EAF5D48D5
:10202000BDE8F08170B541F238010320FEF775F983
:1020300000251EE005F16E021046AF239121FEF748
:102040006CFD05F16E0000EB8000912101EB801426
:1020500005E0002221464D48FFF762FC641C05F1B3
:102060006E0000EB8000AF2101EB8010A042F0DC9D
:102070006D1C142DDEDB4AF6FF70FFF73DFC0025DA
:102080001EE005F164021046BE238221FEF745FDE5
:1020900005F1640000EB8000822101EB801405E073
:1020A000002221463948FFF73BFC641C05F164001F
:1020B00000EB8000BD2101EB8010A042F0DC6D1C24
:1020C000282DDEDB4AF6FF70FFF716FC00251EE028
:1020D00005F150021046DB236421FEF71EFD05F1D9
:1020E000500000EB8000642101EB801405E0002229
:1020F00021462648FFF714FC641C05F1500000EB54
:102100008000DB2101EB8010A042F0DC6D1C502D23
:10211000DEDB4AF6FF70FFF7EFFB00251EE005F15E
:102120003C021046F9234621FEF7F7FC05F13C007E
:1021300000EB8000462101EB801405E000222146DF
:102140001248FFF7EDFB641C05F13C0000EB80003A
:10215000F92101EB8010A042F0DC6D1C782DDEDB54
:102160004AF6FF70FFF7C8FB002526E005F12802BC
:10217000104640F217132821FEF7CFFC05F1280086
:1021800000EB8000282101EB80140BE03E9D02084B
:102190003EF504083E45000800222146A848FFF706
:1021A000BFFB641C05F1280000EB800040F2171112
:1021B00001EB8010A042EFDC6D1CA02DD6DB4AF6AF
:1021C000FF70FFF799FB002520E005F1140210468F
:1021D00040F235130A21FEF7A0FC05F1140000EBD4
:1021E00080000A2101EB801405E00022214694487A
:1021F000FFF796FB641C05F1140000EB800040F231
:10220000351101EB8010A042EFDC6D1CC82DDCDB2A
:102210004AF6FF70FFF770FB002519E040F23F130C
:102220002A4600212846FEF778FC05EB850084014C
:1022300005E0002221468248FFF772FB641C05EB93
:10224000850040F23F1101EB8010A042F1DC6D1CD3
:10225000F02DE3DB7A4870BD70B51F2541F208010F
:102260000320FEF75AF8012467E00A2094FBF0F1FE
:1022700000FB1140012800D1ED432B46A2B25021B2
:102280003C20FEF7A7FB0A2094FBF0F100FB114075
:10229000401C86B21F23324650213C20FEF79AFB99
:1022A0002B46A2B2F0213C20FEF794FB0A2094FBBF
:1022B000F0F100FB1140401C86B21F233246F02192
:1022C0003C20FEF787FB2B46A2B2A0217820FEF728
:1022D00081FB0A2094FBF0F100FB1140401C86B208
:1022E0001F233246A0217820FEF774FB2B46A2B2B2
:1022F0005021B420FEF76EFB0A2094FBF0F100FBA6
:102300001140401C86B21F2332465021B420FEF7F4
:1023100061FB2B46A2B2F021B420FEF75BFB0A2042
:1023200094FBF0F100FB1140401C86B21F233246A3
:10233000F021B420FEF74EFB641C3C2C95DB41F2EF
:1023400038010320FDF7E9FF40F23F13EF2200219F
:102350000846FEF7E2FB002408E000222146394847
:10236000FFF7DEFA0F20FFF7C7FA641CB4F5963FBB
:10237000F3DB344870BD70B51F2541F238010320EE
:10238000FDF7CBFF01241BE00A2094FBF0F100FBDA
:102390001140012800D1ED432B46A2B2A0217820A4
:1023A000FEF718FB0A2094FBF0F100FB1140401CE3
:1023B00086B21F233246A0217820FEF70BFB641C57
:1023C0008C2CE1DB40F23F13EF2200210846FEF7A0
:1023D000A4FB002408E0002221461B48FFF7A0FAD6
:1023E0000F20FFF789FA641CB4F5963FF3DB16481B
:1023F00070BD70B5044641F238010320FDF78DFF32
:10240000002619E09F23324618213046FEF785FB4F
:1024100006EB8600182101EB801505E00022294615
:102420002046FFF77DFA6D1C06EB86009F2101EB2D
:102430008010A842F2DC761C4D2EE3DB70BD00005C
:102440003E9D02083EF504083E45000830BF704737
:1024500020BF704740BF7047BFF36F8F7047BFF317
:102460004F8F7047BFF35F8F704701DF7047EFF307
:102470001480704780F31488BFF36F8F7047EFF3B9
:102480000980704780F309887047EFF30880704730
:1024900080F30888704762B6704772B67047EFF3F2
:1024A0001080704771B6704761B67047EFF31380C4
:1024B000704780F311887047EFF31280704740BA7D
:1024C000704700BA704700000348004703480449BA
:1024D000044A054B704700003101000878000020D5
:1024E000780800207804002078040020002050495B
:1024F00008605049C1F804044D4908310860091DBD
:1025000008604D484A4914310860704781790029B4
:102510004CD04849D1F8001402689143454AC2F8AA
:1025200000141146D1F8041402689143404A121D68
:10253000116001793F4A1144D1F800140268114337
:1025400002793C4B1A44C2F800141946D1F8081419
:10255000026891431A46C2F808141146D1F80C14C7
:1025600002689143324A0C3211604179102910D12E
:102570001946D1F80814026811431A46C2F8081423
:102580001146D1F80C14026811431A46C2F80C1413
:1025900018E04179274A1144D1F800140268114328
:1025A0004279244B1A44C2F800140BE00179214A05
:1025B0001144D1F800140268914302791D4B1A446A
:1025C000C2F8001470470021016001710C214171B3
:1025D0000021817170471649103109680143154A7D
:1025E000C2F81014704701460020114A14321268D4
:1025F0000A4201D0012000E0002070470C4914314C
:1026000008607047014600200022094B1B6803EA5E
:102610000102084BD3F814340B4202D00AB1012056
:1026200000E0002070470249143108607047000044
:102630000004014000000140FFFF070030B943F2F1
:10264000DB014FF0204242F8201005E043F2D201B6
:102650004FF0204242F820106FF07042411C4FF0C2
:10266000204343F8212011461A4602EB8002C2F8AB
:102670000411704710280AD118214FF0204211662A
:10268000402151664FF0FC319166D16610E018216F
:10269000F94A116040214FF02042C2F884104FF0F7
:1026A000FC31F54A083211604FF02042C2F88C101C
:1026B00070471820F0492031086000200906C1F851
:1026C000A4004FF0FC30EC4928310860091D086077
:1026D000091D08607047D0E901121143C268114317
:1026E000026911434269114382691143C26911436E
:1026F000026A1143426A1143826A1143C26A11435A
:10270000026B11434FF02043026843F822108168A6
:10271000082908D11A46016852F8211041F04001F9
:10272000026843F82210416B0968426B526841EA23
:102730000211426B926841EA0221426BD26841EA7F
:102740000241426B126941EA0251426B526941EA0D
:102750000262416B89690A430168491C4FF02043BA
:1027600043F82120816AB1F5804F1ED1816B096841
:10277000826B526841EA0211826B926841EA02213F
:10278000826BD26841EA0241826B126941EA0251CE
:10279000826B526941EA0261826B9269114302685D
:1027A00003EB8202C2F8041108E06FF070414FF0B1
:1027B0002043026803EB8202C2F80411704730B56F
:1027C000002100220023446844F0080485682C435B
:1027D000C5682C4305692C4345692C43856944EA47
:1027E0004524C56944EA4531046A2468056A6D6870
:1027F00044EA0524056AAD6844EA0544056AED68C3
:1028000044EA0562446A2468456A6D6844EA05241E
:10281000456AAD6844EA0544456AED6844EA0563E3
:102820000468102C05D14FF020442166A266E366AF
:1028300008E0914C21604FF02044C4F888208E4C71
:102840000C34236030BDD0E900121143826841EAA4
:102850004221C26841EA4231874A2032116001694F
:1028600009680269526841EA02210269926841EAF4
:1028700002410269D26841EA02617F4A283211604E
:10288000416909684269526841EA022142699268D5
:1028900041EA02414269D26841EA0261764A2C3239
:1028A0001160816909688269526841EA022182697E
:1028B000926841EA02418269D26841EA02614FF0BE
:1028C0002042C2F8B010704700210160022141602F
:1028D00000218160C160016141618161C1614FF48A
:1028E000805101624900416200218162C16201633D
:1028F0000F21426B1160426B5160FF21426B91606E
:102900000F21426BD160426B1161426B516100211A
:10291000426B91610F21826B1160826B5160FF21CC
:10292000826B91600F21826BD160826B1161826B2F
:1029300051610021826B916170471021016000217B
:1029400041608160C160016141618161C161FC21BF
:10295000026A1160026A5160026A9160026AD16083
:10296000426A1160426A5160426A9160426AD16073
:1029700070470021016041608160C160FC210269F3
:10298000116002695160026991600269D160426917
:10299000116042695160426991604269D160826907
:1029A000116082695160826991608269D16070476B
:1029B00051B14FF0204252F8202042F001024FF076
:1029C000204343F8202009E04FF0204252F8202015
:1029D0002A4B1A404FF0204343F82020704799B10A
:1029E000102808D14FF02042126E42F004024FF03E
:1029F00020431A661DE0204A126842F004024FF09C
:102A00002043C3F8802014E0102809D14FF0204261
:102A1000126E1A4BDB1E1A404FF020431A6608E074
:102A2000154A1268154BDB1E1A404FF02043C3F8BD
:102A30008020704748B110492031096841F00401F5
:102A40004FF02042C2F8A01009E00B49203109687C
:102A50000A4AD21E11404FF02042C2F8A01070471F
:102A6000B9B110280CD14FF02042126E42F0400252
:102A70004FF020431A661FE0800000A0FEFF0F0009
:102A8000714A126842F040024FF02043C3F88020A0
:102A900012E0102808D14FF02042126E6B4B1A4002
:102AA0004FF020431A6607E0674A1268674B1A40E6
:102AB0004FF02043C3F880207047014600201029C2
:102AC00003D14FF02042506F02E05F4A1432106889
:102AD000704710B5F2B1102807D14FF020435B6E5C
:102AE0000B434FF02044636632E0B0F5807F08D19D
:102AF000554B1B1D1B680B434FF02044C4F884301A
:102B000026E0514B24331B680B434FF02044C4F89C
:102B1000A4301DE0102807D14FF020435B6E8B439B
:102B20004FF02044636613E0B0F5807F08D1464B38
:102B30001B1D1B688B434FF02044C4F8843007E012
:102B4000414B24331B688B434FF02044C4F8A4301E
:102B500010BD10B5034600200022102B03D14FF00A
:102B60002044626E09E0B3F5807F03D1364C241D0A
:102B7000226802E0344C243422680A4201D0012049
:102B800000E0002010BD102807D14FF02042526E07
:102B90008A434FF020435A6613E0B0F5807F08D196
:102BA000294A121D12688A434FF02043C3F884203B
:102BB00007E0254A243212688A434FF02043C3F8C5
:102BC000A420704770B50246002000230024002591
:102BD000102A03D14FF02046736E09E0B2F5807FD2
:102BE00003D1194E361D336802E0174E2436336880
:102BF00003EA010403EAD10514B10DB1012000E09C
:102C0000002070BD102808D14FF02042526E22EAF9
:102C1000D1024FF020435A6615E0B0F5807F09D10C
:102C2000094A121D126822EAD1024FF02043C3F86C
:102C3000842008E0044A2432126822EAD1024FF0CC
:102C40002043C3F8A4207047800000A0BFFF0F00FE
:102C500010B50446C049601A8C422FD009DCBF4829
:102C6000201810D0B0F5806F16D0B0F5006F4AD1A3
:102C70001BE0B0F5806F2AD0B0F5006F30D0B0F512
:102C8000406F40D135E00121042000F0E9FC002133
:102C9000042000F0E5FC37E00121082000F0E0FC12
:102CA0000021082000F0DCFC2EE00121102000F0C3
:102CB000D7FC0021102000F0D3FC25E001212020CA
:102CC00000F0CEFC0021202000F0CAFC1CE0012115
:102CD000402000F0C5FC0021402000F0C1FC13E0C2
:102CE0000121802000F0BCFC0021802000F0B8FC15
:102CF0000AE00121080200F0B3FC00214FF48070CB
:102D000000F0AEFC00E000BF00BF10BD10B5012117
:102D1000084600F0A5FC0021012000F0A1FC10BD38
:102D2000F0B500220023002400250026002791F89A
:102D300003C00CF00F0291F803C01CF0100F03D079
:102D400091F802C04CEA0202B1F800C01CF0FF0F7B
:102D500030D0066800242AE04FF0010C0CFA04F58C
:102D6000B1F800C00CEA0503AB421FD1A5004FF03B
:102D70000F0C0CFA05F7BE4302FA05FC4CEA0606F6
:102D800091F803C0BCF1280F05D14FF0010C0CFAEB
:102D900004FCC0F814C091F803C0BCF1480F05D181
:102DA0004FF0010C0CFA04FCC0F810C0641C082C95
:102DB000D2D30660B1F800C0BCF1FF0F34DD466825
:102DC00000242EE004F1080C4FF0010E0EFA0CF571
:102DD000B1F800C00CEA0503AB4221D1A5004FF0C9
:102DE0000F0C0CFA05F7BE4302FA05FC4CEA060686
:102DF00091F803C0BCF1280F05D104F1080C0EFABC
:102E00000CFEC0F814E091F803C0BCF1480F07D1E4
:102E100004F1080C4FF0010E0EFA0CFEC0F810E0A1
:102E2000641C082CCED34660F0BD4FF6FF710180C4
:102E3000022181700421C17070470246002093680E
:102E40000B4201D0012000E0002070470146886855
:102E500080B2704702460020D3680B4201D00120A7
:102E600000E0002070470146C86880B270470161E9
:102E70007047416170470AB1016100E041617047EC
:102E8000C16070474FF480320A4382618161826180
:102E90008269826970470022314B1A684FF680734D
:102EA0001A4042EA00120A432D4B1A6070472D491E
:102EB000C8617047F0B50022002300250024284E89
:102EC0007568C0F3034482B200F44016B6F5401FA3
:102ED00008D125F07065224E766826F07066204F86
:102EE0007E6012E000F48016B6F5801F06D103263E
:102EF00006FA04F39D4345F0706506E0460D360181
:102F000002FA06F6B54345F0706521B1460D36016B
:102F100002FA06F63543124E7560F0BD30B5002258
:102F20008B071C0F0F2303FA04F20D4B08338C1090
:102F300053F8244094438D1043F825408C1053F8E7
:102F400024308C07240F00FA04F42343044C083483
:102F50008D1044F8253030BD0014014000F8FEBF4C
:102F600000000140000020420020411EF24A116092
:102F70000A09F1498039C1F88420411E4FF0E0224E
:102F8000C2F880120A09ED490A6000BF04E000227D
:102F9000EB4941F82020401C0F28F8D3704700204F
:102FA0004FF02061E74A116000214FF0E022C2F8A3
:102FB000081DE549E34A083211600021121D116025
:102FC000121D116000BF05E00022DE49143141F8F6
:102FD0002020401C0328F7D30021DA4A2032116058
:102FE000491E4FF0E022C2F8281DD64A283211604F
:102FF0004FF0E022C2F8301D7047D3490143D14A57
:10300000083211607047F0B500210022002300242F
:103010000F25C678002E36D0CA4E0836366806F41C
:10302000E066C6F5E066310AC1F10404CD40467899
:1030300006FA04F186782E40314309010678B60776
:10304000F60EB140BE4E0778BF1056F8272006781E
:10305000B607F70EFF2606FA07F39A4319400A430C
:10306000B74E0778BF1046F82720067806F01F07EE
:103070000126BE4007787F114FF0E02C0CEB87074C
:10308000C7F800610BE0067806F01F060127B7407D
:10309000A94E90F800C04FEA6C1C46F82C70F0BDA9
:1030A0000021017041708170C170704710B5FFF749
:1030B000F4F910BD10B5FFF7EEF910BD10B5FFF72C
:1030C000F1F910BD10B5FFF7EFF910BD10B50446CA
:1030D0002001FFF7EEF910BD10B5FFF7EDF910BDB7
:1030E00098480068C0F30930704710B501460020C9
:1030F000002201F01F04012303FA04F28E4B8033F7
:103100004C1153F824301340934201D1012000E0C8
:10311000002010BD8D490860704700F01F0101229A
:103120008A408649091F431141F82320704785488A
:103130000068C0F30900704710B501460020002266
:1031400001F01F04012303FA04F27C4B7C334C1181
:1031500053F824301340934201D1012000E00020B5
:1031600010BD7848001F00687047794A0A40024342
:10317000744B1B1D1A6070477348001D714908315C
:10318000086070477048401C6E49083108607047FD
:1031900041B16C4A0C32126802434FF0E023C3F88D
:1031A000102D07E0674A0C32126882434FF0E0238B
:1031B000C3F8102D704710B5002200F01F04012342
:1031C00003FA04F241B15F4B20331B6813434FF005
:1031D000E024C4F8243D07E05A4B20331B68934396
:1031E0004FF0E024C4F8243D10BDF0B50023FF24C7
:1031F00000250026534F08373F6807F4E067C7F5FE
:10320000E0673E0AC6F10403F44001FA03F602EA5D
:1032100004073E43360100F0C0039B09C0F30124BC
:10322000E700BE404FEAC40CFF2707FA0CF5454FF4
:10323000143757F823C02CEA050C47F823C057F879
:1032400023C04CEA060C47F823C0F0BD10B5014678
:103250000020002200238B0A03F00F03012404FA4C
:1032600003F3384C2034246804EA03029A4201D163
:10327000012000E0002010BD002100F01F01314AB4
:10328000136801228A4013434FF0E022C2F8043D44
:10329000704710B5002100F01F012A4A13684C1E28
:1032A0000122A24013434FF0E022C2F8043D10BDBA
:1032B00010B50146002000230022C1F3833201240F
:1032C00004FA02F21F4C2034246804EA02039342F9
:1032D00001D1012000E0002010BD30B501460020E2
:1032E00000220023C1F38142C1F301531AB9154CE6
:1032F0002834206811E0012A0CD1124C24342468AF
:10330000DD0024FA05F0022B02D000F00F0004E0EB
:10331000C0B202E00B4C2C34206830BD01460020C6
:103320000022C1F380521AB9064B3033186802E00C
:10333000044B34331868704780E100E084E200E019
:1033400000E400E004ED00E00000FA0500EF00E01A
:1033500080FFFF1FDE48006840F00100DC49086084
:1033600008464068DB490840D9494860084600687B
:10337000D9490840D64908600846006820F48020F2
:1033800008600846406820F4FE004860002088601D
:103390007047CF49096821F48031CD4A1160114648
:1033A000096821F480211160B0F5803F03D0B0F5A9
:1033B000802F0ED106E0C649096841F48031C44A25
:1033C000116007E0C249096841F4A021C04A1160B8
:1033D00000E000BF00BF704710B501460022002387
:1033E00000204A11012A02D1B94C236806E0022AC2
:1033F00002D1B74C236A01E0B54C636A01F01F02A9
:10340000012494401C4201D0012000E0002010BDA6
:1034100010B5002400BF3120FFF7DEFFAF49087070
:10342000081F0068401C091F0860081D007828B9A3
:1034300008460068A0F58071FF39ECD13120FFF714
:10344000CBFF08B1012400E00024204610BD00217C
:103450009F4A116821F0F80141EAC00111607047EC
:103460009F49086070470022994B5A6822F47C12E9
:1034700040EA01031A43964B5A6070479849086620
:1034800070470021924A516821F0030101435160C5
:1034900070478F48406800F00C00704700218C4A4C
:1034A000516821F0F0010143516070470021884AC2
:1034B000516821F4E0610143516070470021844A62
:1034C000516821F4605141EAC0015160704729B14F
:1034D0007F4A527A02437E4B5A7206E07C4A527A05
:1034E000C343DBB21A407A4B5A7270477C49D831D9
:1034F000086070470021764A516821F44041014339
:10350000516070470021724A20321170704A82F86F
:103510002010012802D004280AD104E001216C4ABD
:103520002032117005E00521694A2032117000E057
:1035300000BF00BF70476B49086070476449096A63
:103540000143634A11627047664944390860704715
:1035500030B500210022002300245D4D6D6805F088
:103560000C0121B1042905D0082923D105E05E4DC5
:10357000056022E05C4D05601FE0554D6D6805F467
:103580007012022505EB9242514D6D6805F48033AF
:103590001BB9564D554305600BE04D4D6D6815F454
:1035A000003F03D0514D5543056002E04E4D554359
:1035B000056002E04C4D056000BF00BF444D6D68E2
:1035C00005F0F00109094A4D6C5C0568E54045606D
:1035D0003F4D6D6805F4E061090A454D6C5C456836
:1035E000E54085603A4D6D6805F46051C90A404D6B
:1035F0006C5C4568E540C560354D6D6805F440413B
:10360000890B3B4D10356C5CC568B5FBF4F5056165
:1036100030BD29B12E4A526902432D4B5A6104E054
:103620002B4A526982432A4B5A61704729B1284A72
:1036300092690243264B9A6104E0254A92698243CB
:10364000234B9A61704729B1214AD2690243204B2A
:10365000DA6104E01E4AD26982431D4BDA61704789
:1036600029B11B4AD2680243194BDA6004E0184AB8
:10367000D2688243164BDA60704729B1144A126946
:103680000243134B1A6104E0114A12698243104B42
:103690001A61704713494039086070471049C8647F
:1036A00070470B49C87170470948406A40F0807004
:1036B00007494862704701460020054A92680A425D
:1036C00001D0012000E00020704701498872704756
:1036D000001002400000FFF8FFFFF6FE140000207B
:1036E000000042428004424200127A0000093D007C
:1036F0003E4D070810B50446CB4820180FD0B0F552
:10370000806F16D0B0F5784F1DD101210803FFF767
:10371000A7FF00214FF48050FFF7A2FF14E0012122
:103720008803FFF7AAFF00214FF48040FFF7A5FFB1
:103730000AE00121C803FFF7A0FF00214FF4004079
:10374000FFF79BFF00E000BF00BF10BD10B50022D7
:10375000028802F441520B884C8823438C8823430F
:10376000CC8823430C8923434C8923438C892343EE
:10377000CC8923431A430280838B4FF2FF7423408A
:1037800083830B8A038210BD2DE9F04786B004467F
:103790000D4600260227B0464FF00109B246A08B25
:1037A0004FF240010840A08302202084A68B288984
:1037B000022801D100BF31E0A88810B94FF00109FB
:1037C00001E04FF0020901A8FFF7C2FEE888B0F55A
:1037D000007F0BD1019800EB80004000298909028D
:1037E000B0FBF1F0401D1FFA80FA0CE04FEA4910DF
:1037F00029894843019901EB81014900B1FBF0F0AF
:10380000401D1FFA80FA0A20BAFBF0FA0AF00108FC
:10381000AAEB0800C0F34F074FEA0828022F01DB8C
:10382000FF2F02DD02274FF0000847EA0800E98871
:1038300008432084288840F4006069880843A988E8
:103840000843698908430643A68306B0BDE8F087AC
:103850000021018041808180C1800181418181817D
:10386000C181072101827047002101804180818050
:10387000C1800221018100214181704721B102886C
:1038800042F04002028004E002884FF6BF731A4003
:103890000280704721B1828B42F48062828304E00F
:1038A000828B4FF6FF331A408283704770B5002336
:1038B00000240B1101259D40ACB21AB18588254327
:1038C000858004E08588E643B6B23540858070BDCA
:1038D00010B51AB183880B43838004E08388CC43FE
:1038E000A4B22340838010BD81817047014688893E
:1038F0007047A1F57E42FF3A04D0028842F48072FC
:10390000028004E002884FF6FF631A40028070478D
:1039100021B1828842F00402828004E082884FF65E
:10392000FB731A408280704702884FF2FF731A407F
:10393000028002880A4302807047018841F4805166
:103940000180704721B1028842F40052028004E0F5
:1039500002884DF6FF731A4002807047024600202D
:10396000012901D0108B00E0908A70470146088A37
:103970007047B1F5804F04D1028842F48042028042
:1039800004E002884BF6FF731A400280704702463B
:10399000002013890B4201D0012000E00020704775
:1039A000202905D10289028842F04002028007E006
:1039B000402901D0082901D1028901E0CA430281CE
:1039C0007047F0B50246002000230024002501F0D6
:1039D0000F070126BE40B3B20C110126A640B4B2B7
:1039E000968806EA040516891E4202D00DB1012010
:1039F00000E00020F0BD10B50022552905D1038953
:103A0000038843F0400303800CE0562901D053297A
:103A100001D1038906E001F00F040123A3409AB20B
:103A2000D343038110BD000000C8FFBF704770473B
:103A30007047754600F028F8AE46050069465346C3
:103A400020F00700854618B020B5FEF73FFDBDE821
:103A500020404FF000064FF000074FF000084FF0F5
:103A6000000B21F00701AC46ACE8C009ACE8C00986
:103A7000ACE8C009ACE8C0098D4670470446AFF316
:103A800000802046FCF79DFB00487047180000208E
:103A900003494FF01800ABBE70470000090000005A
:103AA0002600020070470000000000000000000037
:103AB0000000000000000000000000000000000006
:103AC00000000000000000000000000000000000F6
:103AD00000000000000000000000000000000000E6
:103AE00000000000000000000000000000000000D6
:103AF000000000000000000E0000300E2380380E91
:103B0000E384384E739C38FE7BBC1CFE3FB81CFF20
:103B10009FA00ECF8F800FCFFFFE07CEFFFE03CEFC
:103B20007FFE03FE0BA003FE3FB817BE7FFC3F06DF
:103B30007BBC3B00638C3C00FB803C00FF001E0113
:103B4000FFF00F0FFFFE07BFC1FE07FE01DC03F011
:103B500001C407FE01C00FFFFFC01F1FFFC03E01D1
:103B6000FFC03C0001C0180001C008000180000037
:103B7000000000000000000180000007C07000038A
:103B8000E0700FFFF8700FFFFE700FFFFFF000E016
:103B90007FF000E073F000E0707003FFF07003FF4F
:103BA000F07003FFF0700000007000E0003000E0F3
:103BB000003800E2003800E3FF3800E3FF3800E39C
:103BC000FF3800E3873800E3803800E380381CE3E7
:103BD00080383CE3E0383CE3FFF83C03FFF81FFF8C
:103BE0009FF81FFF80080FFF800000038000000087
:103BF000000000000000003000000078070000FE18
:103C00000700003FC700000FFF003FFFFFFE3FFF20
:103C1000FFFE3FFFFFFE0000C7000003E7000007B4
:103C2000C7000007870000020700000000003FFFF8
:103C3000FFF83FFFFFF83FFFFFF8060E1C38060EA7
:103C40001C38060E1C38060E1C38060E1C38060ED4
:103C50001C38060E1C38060E1C383FFFFFF83FFFCD
:103C6000FFF83FFFFFF80000000000000000000028
:103C700000000000000000300700007C0700007F0B
:103C80000700001FC7000007FF003FFFFFFE3FFFC8
:103C9000FFFE3FFFFFFE0007C700000FC700000741
:103CA0000700000407001FFFFFF81FFFFFF81FFFBA
:103CB000FFF81C6000381C61C7381C61C7381C61E4
:103CC000C7381C61C7381C7FFF381C7FFF381C7F3A
:103CD000FF381C61C7381C61C7381C61C7381C61BC
:103CE000C7381C61C7381C6000381C000038000051
:103CF00000000000086010187E30382E303F33304E
:103D00001FF3F801E3F80018300018003818047F9A
:103D1000FFFC3FFFFC181F000C3D8004ECC001CCF1
:103D2000F8038C780706300F04000E00000E000028
:103D30000C00000400000000000000000000000073
:103D400000003820801C61800F7980037C80106F18
:103D5000C03023E07032FEFFFEFE7FFECE0030E07A
:103D60000030600130600338600718600E10601E7C
:103D700000401C00000000000000000000000000E7
:103D8000000000003800003E80001E40000061007E
:103D90000031000431801C19803C0F8000678601CF
:103DA000FFFE06039C1E06C01C0CC00018C0003895
:103DB000C00270C00670001C60003C6000386000EB
:103DC0000000000000000080000180000182000966
:103DD000C20018E3007F633C3FFFFC08338C0E19E0
:103DE0008007810001F000207FF07FFFE07FF93045
:103DF0001829B0186DB00CCD9803EC98073418074B
:103E000034000E0000060000040000040000000062
:103E1000000000000000000410000FF0000FF00090
:103E20000E00000600000600000600000600F80371
:103E3000FFF803FFF8030000030000030000030085
:103E4000000300003F86001FFE0001FC0000000090
:103E5000000000000000000000000800000C00C08E
:103E60000C20C00C60C02C60C07C20C3FD3CDB3546
:103E70007CDAF5F8DAF7B0FFFFB05BD7B04B57F05C
:103E80006F56DE6BDE9E61FE1C607618602618E0C1
:103E90000618C00600000600000200000000000036
:103EA00000000000000C0000FC000FFC001F0C20B4
:103EB0000D0C2005EC2004FFF0061FF00604300670
:103EC0000430063FF80667F80666180666183C6672
:103ED000183C06183FE6000FFE0000FE00000C0034
:103EE00000000000000000000000000000000000D2
:103EF00000E0003FC003FFC007C060018C60018C80
:103F000060018C6001FFE001FFE00186E000C62057
:103F100000C6300186300F803007FF3001FFF0000F
:103F20000FE0000040000000000000000000000062
:103F30000000000020000030000010000018020007
:103F40000C060007060003870001E30000FB0000E9
:103F50003F80040FFE0801FC7801003801803F011A
:103F6000800FF98003FF80003F8000010000000007
:103F70000000000000000000000000000000003011
:103F8000060000300E000C603C001FF0780C1FFC97
:103F9000701C187F80780007F0F020003E60300031
:103FA00002003000030018FFF3C01CFFE1F00CFF1B
:103FB000E4200E4444200744442007C44420034422
:103FC0004422007FFC26007FFC3E017FFC3C014434
:103FD000442803444420064446200E4447200EFF54
:103FE000E7201CFFF7E03CC060F0380000780000DC
:103FF0000030000000000000000000000000000091
:10400000000006001000030010000180100000E016
:10401000100800701018003C1018001F1018000F36
:10402000D0180C03D0180C01901818011018380083
:104030001018780010183FFFF0181FFFF01800004C
:10404000101800001018000010180001901800034C
:10405000101800071018000E1018001C101C007813
:10406000101C01F0181803E01C1003C01C00000015
:10407000180000001000000000000000200C00707C
:104080000C001FFC381FFC7818004010000037009F
:104090000023E00020FFF82003F8640118660918E7
:1040A00067191863B11861E10860F10861FF0C63DA
:1040B0008F0C630008620000100000000000000088
:1040C000000000000000007FFFF07FFFF0180010EC
:1040D00018001018001018FF1018831018831018FB
:1040E000831018831018831018FF1018FF10180081
:1040F000101800101800107FFFF07FFFF000000084
:10410000000000000000000000000C00600C0070C7
:104110000C181FFC781FFCE0100000300000200C81
:10412000806C0DF0670C7C63CC6861FC60603C6067
:10413000600FFC600FFC67FC606FFC606C0C606CD7
:104140000C606F0C60670C00200000000000000095
:10415000000020003060807060803FFFFC3FFFFC6B
:10416000001080001880040480040800044C180427
:104170004C380444F80447D87FF3187FF3180447F9
:10418000980446D8044C78044C18040C08040C001D
:104190000000000000000000000000000000007FA0
:1041A000FFC07FFFC000004000004000004003F857
:1041B0007C03F87C03084C030840030840030840D4
:1041C00003F84003F8400000406000406000407F7A
:1041D000FFC03FFFC0000000000000000000000022
:1041E0000000001800001800001800001800001857
:1041F0000000180000180000180000187FFFF87F6A
:10420000FFF8000018000018000618000E18001C27
:104210001800381800701800E01800401800001846
:10422000000000000000000000000000000000008E
:10423000300000300000300000300000300000305E
:1042400000003000001000001000001000001000FE
:1042500000180000180000180000180000180000E6
:104260001800001800001800000000000000000006
:1042700000000000040000040000040000040080AE
:104280000601800600800600800600800600800689
:1042900000800600C00600C00600C00600C0060080
:1042A000C00600C00600000200000300000200007B
:1042B000000000000000000000000000300000309E
:1042C0000000100030103830101030101030101076
:1042D000301010301010301010301010301010301E
:1042E0001010301010301010301010301038301006
:1042F000003010000030000000000000000000004E
:10430000000000004002006003002001C031CAE04C
:1043100019FA780D923F0D9A3E079BD0439B90FF70
:10432000FF98FFFFE000DB7806C91F0CC91E0CCF09
:10433000B81CC9F80FE01803E018000018000018B6
:104340000000000000000000000400000E00100645
:10435000003006001003FFF003FFF803199801195D
:10436000987FFFF87FFFF83080181883480CCFC87B
:10437000071C4003F06001F060073E601E0FF0383C
:1043800000F03800001000001000001000000000D5
:10439000000000000402001C06003C0C0C1F8C18DE
:1043A00003E070007C000004007FFF98FFFE7001B6
:1043B00026E00136000137FF01B7FE11B20031B32C
:1043C000806002E0FFFF781FFF180000000000007F
:1043D0000000000000000000000000000010001CB1
:1043E00018000E1E000F1F800DD9E00CE87E047827
:1043F0001C049E000787800F02000600C00000C05A
:104400001800C03800C07000C07800C01FE0C007AE
:10441000FFE00003E00000000000000000000000DA
:1044200000000000600300381E000F1C0003FC04A5
:1044300000FFFC008CF80186000303800701E00008
:104440000120000020180020300020700030FFFF05
:10445000F03FFFF00000300000300000300000109E
:10446000000010000000000000000000800000E0DC
:1044700000003800000F800003FFFE007FFC006694
:10448000000062000062000062000062002023FF62
:10449000FFF3FC3FF30000030000030000030000F3
:1044A0000300000100000000000000000000000008
:1044B0000000400000604000386007FE600FFFE031
:1044C000031BE0C198E061FC60390F300F83A0034B
:1044D000FFC0019E7001B23E1FFF3E3FFFF0119BE7
:1044E000F0309B387FFF107FFF800001000000004C
:1044F00000000000000000000040000060000038E4
:1045000000001C03F00705F803E46003F4600304F3
:10451000600604600406620FFE7E1FFE7C184620C3
:10452000304620306620606620E062306002F06035
:10453000007060002060000040000000000064A6E1
:1045400066A628A6EB9D70AEF4BEB6D775CF2D9E9D
:10455000E56CE26C20752075607DA185A185E295F2
:10456000E295E295E19D219E219EE095E095A29540
:10457000A295E39DE49DE49DE59DA49D6395A4859E
:10458000A47D6375636D636D63656255614D2345FD
:10459000223D223D233D633D6335633DA33DA2455E
:1045A000E24DE24DA355A355A45564552355E34C64
:1045B000E344A344633C633C243C2344C33B844323
:1045C00085438543454B064BC64A864A864A465232
:1045D000465246520652075A075A075A075A076266
:1045E00007620762C761C761C761C761C661C66903
:1045F000C6698669867186718671C679C779C679FA
:10460000C779C779C779C779077A077207720672BF
:104610000672C671C671C6690662065A055A055207
:10462000454A454A8542843AC43204330433442B14
:10463000442B432B432B832B842B842B842B842BC5
:1046400084338433842B842B8433C433C533C43301
:104650002434243424342434243424342434C433FB
:104660002434243424342434242C24342434653451
:1046700064342434253C653C6644A74CA84CA954BA
:10468000EA54EB5C2C5D2C652D652F6D306D31751A
:104690007275757DB685B785F885F98DFA8D3A9670
:1046A0007B967B967B967B967C967C96BD9EBD9EEC
:1046B000BD9EBD9EBD9EBD9EBD96BD96BD96BD9642
:1046C000BD96BD96BD96BD96BD96BD96BD96BE9E49
:1046D000BE9EBD9EBD9EBE9EBD9EBEA6BEA6BEA6E5
:1046E000BEA6BEA6BEA6BEA6BEA6BEA6BEA6BD9EB3
:1046F000BD9EBD9EBD9EBEA6BD9EBD9EBD9EBD9ED9
:10470000BD9EBD9EBD9EBD9EBD9EBD9EBD9EBD9ED1
:10471000BD9EBD9EBD9EBD9EBD9EBD9EBD9EBD9EC1
:10472000BD9EBD9EBD9EBD9EBD9EBD9EBD9EBD9EB1
:10473000BD9EBD9EBD9EBD9E7D9E7D9E7D9EBD9E61
:10474000BD9EBD9EBD9EBD9EBD9EBD9EBD9EBD9E91
:10475000BD9EBD9E7D9E7D9E7D9E7D9EBD9E7D9EC1
:104760007D9E7D9E7D9E7D9E7D9E7D9E7D9E7D9E71
:104770007D9E7D9E7D9E7D9E7D9E7D9E7D9E7D9E61
:104780007D9E7D9E7D9E7D9E7D9E7D9E7D9E7D9E51
:104790007D9E7D9E7D9E7D9E7D9E7D9E7D967D9E49
:1047A0007D9E7D9E7D9E7D9E7D9E3C963C967D96CB
:1047B0007D967D967D967D963C963C963C9666AE23
:1047C00067AE29A6ECA571AEF4BE76CF76C72E9E55
:1047D000E774E36CE174E074617DA285A38DA38D21
:1047E000E395E395E295229E229EE19DE195A195B8
:1047F000A295E39DE39DE39DE39DE39DA395A385A2
:10480000A37D63756375A36D63656255224D224573
:104810002245223D223D22352235633D6345A24596
:10482000A24DE24DA255A355A35D64552355E34C1B
:10483000E34CA344633C643C243C2444C43B844395
:1048400084438543454B064BC64A864A864A4652B0
:104850004652465206520652075A075A075A0762EC
:1048600007620762C761C761C761C761C761C6697F
:10487000C669866986718671C671C679C779C67937
:10488000C779C779C779C779077A0772077206723D
:104890000672C671C669C6690662055A0552044A9F
:1048A000444A45428442843AC43204330433442B9C
:1048B000442B432B432B832B842B842B842B842B43
:1048C0008433843384338433C433C433C433C43330
:1048D000C433243424342434243424342434C433DA
:1048E00024342434242C2434242C243424346534D7
:1048F0006434653C253C663C6644A74CA84CA954EE
:10490000EA54EB5C2C5D2C652D652E6D306D317598
:104910007275757DB685B785F885F98DFA8D3A8EF5
:104920007B967B967B967C967C967C96BD9EBD9E68
:10493000BD9EBD9EBD9EBD9EBD96BD96BD96BD96BF
:10494000BD96BD96BD96BD96BD9EBD9EBD9EBE9EAE
:10495000BE9EBE9EBD9EBD9EBEA6BEA6BEA6BEA659
:10496000BEA6BEA6BEA6BEA6BEA6BEA6BD9EBD9E39
:10497000BD9EBD9EBEA6BEA6BD9EBD9EBD9EBD9E4D
:10498000BD9EBD9EBD9EBD9EBD9EBD9EBD9EBD9E4F
:10499000BD9EBD9EBD9EBD9EBD9EBD9EBD9EBD9E3F
:1049A000BD9EBD9EBD9EBD9EBD9EBD9EBD9EBD9E2F
:1049B000BD9EBD9EBD9EBD9E7D9E7D9E7D9EBD9EDF
:1049C000BD9EBD9EBD9EBD9EBD9EBD9EBD9EBD9E0F
:1049D000BD9E7D9E7D9E7D9E7D9E7D9E7D9E7D9EBF
:1049E0007D9E7D9E7D9E7D9E7D9E7D9E7D9E7D9EEF
:1049F0007D9E7D9E7D9E7D9E7D9E7D9E7D9E7D9EDF
:104A00007D9E7D9E7D9E7D9E7D9E7D9E7D9E7D9ECE
:104A10007D9E7D9E7D9E7D9E7D9E7D9E7D9E7D9EBE
:104A20007D9E7D9E7D9E7D9E7D9E7D963C967D9EFF
:104A30007D967D967D967D967D963C963C96E79DEF
:104A4000E89DEB9D2FA6F5C678CFFADFFBE7F4B61D
:104A5000AD8D287D257D247D6485A585E695E79D22
:104A600028A6279EE59DE49D239EE39DE395E39D77
:104A7000E395E39DE39DE295E295E295E295E38D72
:104A8000E38DA27DA37DA475A46D635D2355234DA5
:104A90002245223D223D223D223D623D6345A24DFD
:104AA000A24DA255A35DA35DA35D635D2355234D78
:104AB000E34CA344A43C643C653C253CC53BC44357
:104AC00084438543454B054BC54A864A864A8652F0
:104AD000465246524652065A075A075A076207621A
:104AE0000762C761C761C761C761C761C661C6693F
:104AF000C669C669C671C671C671C679C679C671FE
:104B0000C779C779C779C779077A077207720672BA
:104B10000672C671C669C5690562055A0552044A1E
:104B200004424442843AC43AC43204330433442B2A
:104B3000432B432B842B832B832B842B842B842B81
:104B4000843384338433842BC433C433C433C433B5
:104B5000C433C433C43324342434243424342434B8
:104B6000C433C42BC42B2434243424342434643478
:104B7000653C653C653C66446644A74CA84CA9541A
:104B8000E954EA5CEB5CEC642C652E6D2F6D31759D
:104B90007275747DB67DB785F885F98DFA8D3A8E7C
:104BA0003B963B963B967C967C967C96BD9EBD9EA6
:104BB000BD9EBD9EBD9EBD96BD967C967C967C9608
:104BC0007D967D96BD9EBD9EBD9EBD9EBD9EBD9E9D
:104BD000BD9EBD9EBD9EBD9EBE9EBEA6BEA6BEA6E1
:104BE000BEA6BD9EBEA6BEA6BEA6BEA6BD9EBD9EC0
:104BF000BD9EBD9EBEA6BEA6BEA6BD9EBD9EBD9EC2
:104C0000BD9EBD9EBD9EBD9EBD9EBD9EBD9EBD9ECC
:104C1000BD9EBD9EBD9EBD9EBD9EBD9EBD9EBD9EBC
:104C2000BD9EBD9EBD9EBD9EBD9EBD9EBD9EBD9EAC
:104C3000BD9EBD9EBD9EBD9EBD9E7D9E7D9EBD9E1C
:104C4000BD9EBD9EBD9EBD9EBD9EBD9EBD9EBD9E8C
:104C5000BD9E7D9E7D9E7D9E7D9E7D9E7D9E7D9E3C
:104C60007D9E7D9E7D9E7D9E7D9E7D9E7D9E7D9E6C
:104C70007D9E7D9E7D9E7D9E7D9E7D9E7D9E7D9E5C
:104C80007D9E7D9E7D9E7D9E7D9E7D9E7D9E7D9E4C
:104C90007D9E7D9E7D9E7D9E7D9E7D9E7D9E7D9E3C
:104CA0007D9E7D9E7D9E7D9E7D9E7D9E7D967D9E34
:104CB0007D9E7D9E7D967D967D963C963C962CAE07
:104CC000ECA570AEB3BE79D77BD7BCDFFDE738C7A4
:104CD000F19D2C856A85AA95EB952B9E2BA6ADAEF2
:104CE000ADB6ACAE299EE795E695E595E595E595DB
:104CF000E495E495E395E295E18DE195E195E28D0A
:104D0000E28DA185A27DA375636D225D225D235591
:104D1000234D22452245224522456245634DA25539
:104D2000A355A35DA35DA35D635D635D225524551B
:104D3000E34CA344A43C643C253C253C2644C443AA
:104D4000C443854B454B054BC64A86528652865214
:104D500086524652465A465A475A076207620762C7
:104D600007620662C661C661C661C761C761C7697D
:104D7000C669C669C671C671C671C671C679C7797A
:104D8000C779C779C779C779077A077A077207722F
:104D900006720672C6690562055A055A0552044A2A
:104DA00044424442843AC43AC43204334433432B29
:104DB000442B842B842B832B842B842B842B842BBC
:104DC000842BC433842B842BC433C433C433C43303
:104DD000C433C433243424342434243424342434D5
:104DE000C433C42BC43324342434243424346434EE
:104DF000653C653C663C66446644A74CA84CA85498
:104E0000E954EA54EB5CEB5CEC642E652F6D306D7D
:104E10007275747D757DB67DB785F98DF98D3A8E85
:104E20003A963A963B967C967C967C96BD9EBD9E25
:104E3000BD9EBD9EBD9E7D967C967C967C967C9606
:104E40007C967C967C967D9E7D9EBD9EBD9EBD9EE5
:104E5000BD9EBD9EBD9EBD9EBD9EBD9EBE9EBD9E79
:104E6000BD9EBD9EBE9EBE9EBE9EBE9EBE9EBD9E65
:104E7000BD9EBEA6BEA6BEA6BEA6BD9EBD9EBD9E36
:104E8000BD9EBD9EBD9EBD9EBD9EBD9EBD9EBD9E4A
:104E9000BD9EBD9EBD9EBD9EBD9EBD9EBD9EBD9E3A
:104EA000BD9EBD9EBD9EBD9EBD9EBD9EBD9EBD9E2A
:104EB000BD9EBD9EBD9EBD9EBD9EBD9E7D9EBD9E5A
:104EC000BD9EBD9EBD9EBD9EBD9EBD9EBD9EBD9E0A
:104ED0007D9E7D9E7D9E7D9E7D9E7D9E7D9E7D9EFA
:104EE0007D9E7D9E7D9E7D9E7D9E7D9E7D9E7D9EEA
:104EF0007D9E7D9E7D9E7D9E7D9E7D9E7D9E7D9EDA
:104F00007D9E7D9E7D9E7D9E7D9E7D9E7D9E7D9EC9
:104F10007D9E7D9E7D9E7D9E7D9E7D9E7D9E7D9EB9
:104F20007D9E7D9E7D9E7D9E7D9E7D9E7D9E7D9EA9
:104F30007D9E7D9E7D9E7D967D967D963C96EFA581
:104F4000AFA573B6F7C67BD77DDFBDD7BEDFFDDF6C
:104F5000F8C673AE72AEB3B6B2B6B1B6B1B633BFC1
:104F600033C7F1BE6EAE2CA62A9EE99DE995E89561
:104F7000A78DA68DA58DE48DE48DE395E395E28D57
:104F8000E28DA285A17DA275626D2265625D235DC1
:104F90002355234D634D624D224D624DA255A35DB5
:104FA000A35DA365A36562656365635D625D24556A
:104FB000E34CA344A444643C253C253C2644C44320
:104FC000C443854B454B054BC552C652C652C65AC3
:104FD000865A8652465A465A4762476207620762B5
:104FE00006620662C661C661C661C769C769C769EC
:104FF000C669C669C771C671C671C671C679C779F7
:10500000077A077AC779077A077A077A07720772E9
:1050100006720672066A0662055A05520552444235
:1050200044424442843AC43A0433042B442B442B74
:10503000842B842B842BC32BC32BC42BC42BC42BBA
:10504000C42BC42BC42BC433C433C433C433C433C0
:10505000243424342434243424342434243425348F
:105060002434C433243424342434243424342534E0
:10507000653C663C664466446744A74CA84CE854CB
:10508000E954E954EA5CEB5CEC642D652E6D306DFF
:105090007275737D757DB67DB785F885F98DF98D4F
:1050A0003A8E3A8E3A967B967C967C967C9EBC9EF7
:1050B000BC9EBC9E7C967C967C967C967C967C9EC8
:1050C0007C967C967C967C9E7C9E7C9E7D9E7D9E26
:1050D0007D9EBD9EBD9EBD9EBD9EBD9EBE9EBD9E37
:1050E000BD9EBD9EBE9EBE9EBE9EBE9EBE9EBE9EE2
:1050F000BE9EBE9EBE9EBE9EBE9EBE9EBD9EBD9ED2
:10510000BD9EBD9EBD9EBD9EBD9EBD9EBD9EBD9EC7
:10511000BD9EBD9EBD9EBD9EBD9EBD9EBD9EBD9EB7
:10512000BD9EBD9EBD9EBD9EBD9EBD9EBD9EBD9EA7
:10513000BD9EBD9EBD9EBD9EBD9EBD9EBD9EBD9E97
:10514000BD9EBD9EBD9EBD9EBD9EBD9EBD9EBD9E87
:10515000BD9E7D9E7D9E7D9E7D9E7D9E7D9E7D9E37
:105160007D9E7D9E7D9E7D9E7D9E7D9E7D9E7D9E67
:105170007D9E7D9E7D9E7D9E7D9E7D9E7D9E7D9E57
:105180007D9E7D9E7D9E7D9E7D9E7D9E7D9E7D9E47
:105190007D9E7D9E7D9E7D9E7D9E7D9E7D9E7D9E37
:1051A0007D9E7D9E7D9E7D9E7D9E7D9E7D9E7D9E27
:1051B0007D9E7D9E7D9E7D967D967D963C96B6C617
:1051C000B6C67ADFBCDFBEE7BFDF7ED77ED73DCF76
:1051D000FBC6F9BE39C779CF38CF78CF37CF78CF74
:1051E00079D778CF36C7F4BEB2B6B1B6B1AE6FAE2E
:1051F0006EA62D9E2C9E2B9E2A9E299EE895E58DBF
:10520000E58DA485A37DA37D636D62656365245DE3
:10521000235D23556355225522556255625DA35D7A
:10522000A365A365626D626D636563656365645DB7
:105230002355E34CA3446444243C25442544C443FF
:10524000C543854B454B05530553C652C65286523E
:10525000865A8652865A465A4662466246620662B6
:10526000066A06620662C661C661C669C669C76922
:10527000C669C669C671C671C671C671C679C77975
:10528000C779C781C781077A077A077A07720772D9
:1052900006720672066A0562055A055205524442B4
:1052A0004442843A843AC4320433042B442B842B82
:1052B000842B832B832BC32BC32BC32BC32BC42B3C
:1052C000C42BC42BC32BC42BC433C433C4332434E6
:1052D000243424342434243424342434243C243406
:1052E0002434243424342434243424342434653CB5
:1052F000653C653C66446644A744A74CA74CE8540B
:10530000E854E954EA54EA5CEB5CED642E652F6DD9
:1053100071757375747D757DB685F785F88DF98D1A
:10532000F98D3A8E3A8E7B967B967B967C967C9610
:105330007C967C967C967C967C967C963B967B961F
:105340007B963B963B963C967C967C967C967C9690
:105350007C9E7D9E7D9EBD9EBD9EBE9EBE9EBD9E34
:10536000BD9EBD9EBE9EBE9EBE9EBE9EBE9EBE9E5F
:10537000BE9EBE9EBE9EBE9EBE9EBE9EBE9EBD9E4E
:10538000BD9EBD9EBD9EBD9EBD9EBD9EBD9EBD9E45
:10539000BD9EBD9EBD9EBD9EBD9EBD9EBD9EBD9E35
:1053A000BD9EBD9EBD9EBD9EBD9EBD9EBD9EBD9E25
:1053B000BD9EBD9EBD9EBD9EBD9EBD9EBD9EBD9E15
:1053C000BD9EBD9EBD9EBD9EBD9EBD9EBD9EBD9E05
:1053D000BD9EBD9E7D9E7D9E7D9E7D9E7D9E7D9E75
:1053E0007D9E7D9E7D9E7D9E7D9E7D9E7D9E7D9EE5
:1053F0007D9E7D9E7D9E7D9E7D9E7D9E7D9E7D9ED5
:105400007D9E7D9E7D9E7D9E7D9E7D9E7D9E7D9EC4
:105410007D9E7D9E7D9E7D9E7D9E7D9E7D9E7D9EB4
:105420007D9E7D9E7D9E7D9E7D9E7D9E7D9E7D9EA4
:105430007D9E7D9E7D9E7D9E7D967D967D963BD7B5
:10544000FACEFEEFBEE77EDF7FDF7FD73ECF7FD78E
:105450007FD77ED7BEDFBDDF7DD7BDDF7BD77DD7D2
:10546000BDD7BDDFBCD7BBD77ACF79CF79CF78CFC7
:1054700037C736C7F5BEF4B6F3B6B1B66FA62B9EE6
:10548000E995A885A685A67D646D236523652465B9
:105490006465635D635D625522556155625DA36518
:1054A000A36D636D626D626D636D63656365245D9D
:1054B0002355E34CA3446344233C24442444C44381
:1054C000C443844B454B05530553C552C6528652BF
:1054D000865A865A865A465A466246624662066A24
:1054E000066A066A0662066AC669C669C669C76947
:1054F000C669C669C671C671C671C671C679C779F3
:10550000077AC781C7810782077A077A077A077205
:1055100007720672066A066A0562055A45524442D7
:105520004442843A843AC432042B442B432B832BC9
:10553000832B832B832BC32BC32BC32BC32BC42BBA
:10554000C42BC42BC32BC42BC433C433C433C433C4
:10555000C433C433C433C4332434243C243CC43360
:10556000C433243424342434243424342434653C93
:10557000653C653C663C6644A744A74CA74CE85490
:10558000E854E954E954EA5CEB5CEC642E652F6D59
:10559000306D72757375747DB57DB785F785F98D3E
:1055A000F98DF98D398E3A967B963B967B967C9653
:1055B0007C967C967C967C963B963B963B963B965F
:1055C0003B963B963B963B963B963B963B963B9653
:1055D0007C967C967C967D9EBD9EBD9EBE9EBD9E0D
:1055E000BD9EBD9EBE9EBE9EBE9EBE9EBE9EBE9EDD
:1055F000BE9EBE9EBE9EBE9EBE9EBE9EBE9EBD9ECC
:10560000BD9EBD9EBD9EBD9EBD9EBD9EBD9EBD9EC2
:10561000BD9EBD9EBD9EBD9EBD9EBD9EBD9EBD9EB2
:10562000BD9EBD9EBD9EBD9EBD9EBD9EBD9EBD9EA2
:10563000BD9EBD9EBD9EBD9EBD9EBD9EBD9EBD9E92
:10564000BD9EBD9EBD9EBD9EBD9EBD9EBD9EBE9E81
:10565000BD9EBD9EBD9EBD9EBD9EBD9EBD9E7D9EB2
:105660007D9E7D9E7D9E7D9E7D9E7D9E7D9E7D9E62
:105670007D9E7D9E7D9E7D9E7D9E7D9E7D9E7D9E52
:105680007D9E7D9E7D9E7D9E7D9E7D9E7D9E7D9E42
:105690007D9E7D9E7D9E7D9E7D9E7D9E7D9E7D9E32
:1056A0007D9E7D9E7D9E7D9E7D9E7D9E7D9E7D9E22
:1056B0007D9E7D9E7D9E7D9E7D967D967D967EDFE8
:1056C0003DDFFFF7FFEF7FDFBFDFBFDF7FD77FD794
:1056D0007FD77ED7BFDFBFDFBFDFFFE77DD77FD7B5
:1056E000BFDFBFDFBFDFBFDF7ED77ED7BEDF7DD7A7
:1056F000BDD7BCD77BD77ACFBAD778CFF6BEB0AEFE
:105700002EA6EC95EA8DE98DA77D256D246564654F
:1057100064656465635D635D2255615D6265A36D6B
:10572000A36D6375626D226D236D636D6465235D8A
:105730002355E34CA34C6344234423442344C443F0
:10574000C443844B454B0553C552C552C55286527E
:10575000865A865A865A8662466246624662066A59
:10576000066A066A066A066AC669C669C669C769BC
:10577000C669C669C671C671C671C671C679C77970
:10578000C781C781C781C7810782077A077A0772F5
:1057900007720672066A066A0562055A4552444255
:1057A0004442843AC43AC432032B432B432B842B08
:1057B000832B832BC32BC32BC32BC32BC32BC42BF8
:1057C000C42BC42BC32BC32BC433C433C433C43343
:1057D000C433C433C433C433C4332434243CC43347
:1057E000C433243424342434243424342434253C51
:1057F000253C253C663C6644A74CA74CA74CE85486
:10580000E854A854E954EA5CEB5CEC5C2D65EE6C62
:10581000306D327533757475757DB685B785F88DC5
:10582000F88DF98DF98D3A963A963A967B967C9654
:105830007C967C967C967C963B963B963B963B96DC
:105840003B963B963B963B963B963B963B963B8ED8
:105850003B963B967C967C967D967D9EBD9EBD9E9E
:10586000BD9EBD9EBD9EBE9EBE9EBE9EBE9EBE9E5B
:10587000BE9EBE9EBEA6BE9EBE9EBE9EBE9EBD9E41
:10588000BD9EBD9EBD9EBD9EBD9EBD9EBD9EBD9E40
:10589000BD9EBD9EBD9EBD9EBD9EBD9EBD9EBD9E30
:1058A000BD9EBD9EBD9EBD9EBD9EBD9EBD9EBD9E20
:1058B000BD9EBD9EBD9EBD9EBD9EBD9EBD9EBD9E10
:1058C000BD9EBD9EBD9EBD9EBD9EBD9EBD9EBE9EFF
:1058D000BE9EBD9EBD9EBD9EBD9EBD9EBD9E7D9E2F
:1058E0007D9E7D9E7D9E7D9E7D9E7D9E7D9E7D9EE0
:1058F0007D9E7D9E7D9E7D9E7D9E7D9E7D9E7D9ED0
:105900007D9E7D9E7D9E7D9E7D9E7D9E7D9E7D9EBF
:105910007D9E7D9E7D9E7D9E7D9E7D9E7D9E7D9EAF
:105920007D9E7D9E7D9E7D9E7D9E7D9E7D9E7D9E9F
:105930007D9E7D9E7D9E7D9E7D967D967D967EDF65
:105940007ED7BFE7FFE7BFDFBFDFBFDFBFDF7FD7A8
:105950007FD77FD77FCF7FD7BFDFBFDFBED7BED791
:10596000BED7BED77ED7BED7BED7BEDFBEDF7ED7FF
:10597000BED7BEDF7ED77DD7BDD77CD77CD778CFCB
:10598000F6BEB4B6B2AE709E2D96AA7D276D276581
:10599000676D65656465636522656165A26D6275A5
:1059A000A27D6175216D6275236D22652365E35CBF
:1059B000E354A34CA34C6344634423442344C443AF
:1059C000C443844B444B0553C552C552C552C55AB6
:1059D000865A855A865A866287624662466A066A8F
:1059E000066A066A066A066A066AC669C669C669FA
:1059F000C669C671C671C671C671C6710672C779AD
:105A0000C781C781C781C781C781077A077A077AAB
:105A1000067206720672056A056245524552444A8C
:105A2000443A8432C332C332032B432B4423832BA7
:105A3000832B832BC32BC32BC32BC32BC32BC4336D
:105A4000C42BC42BC42BC42BC433C433C433C433BE
:105A5000C433C433C433C433C433C433C433C4338E
:105A6000C4332434243424342434243424342434D7
:105A7000253C653C66446644A644A744A74CA74C15
:105A8000A84CA854A954EA5CEA5CEB5C2D65EE6472
:105A9000306D316D3275737D747DB57DB685B7859A
:105AA000B78DF88DF98D39963A963A963B967A9657
:105AB0007B967B963B963B963B963B963A963B96DF
:105AC000FA95FA95FA95FA95FA8DFA95FA95FA9566
:105AD0003B963B963B967C967C967C967D9EBD96AF
