:020000040800F2
:1000000070080020B51F00082F0200083102000808
:1000100035020008390200083D0200080000000017
:100020000000000000000000000000004302000883
:1000300041020008000000004502000847020008D5
:10004000490200084B0200084D0200084F02000858
:100050005102000853020008550200085702000828
:100060006F02000893020008B5020008B7020008FA
:10007000B9020008BB020008BD020008BF02000868
:10008000C1020008C3020008C5020008C702000838
:10009000C9020008CB020008CD020008590200087E
:1000A000CF020008D1020008D3020008D5020008E0
:1000B000D7020008D9020008DB020008DD020008B0
:1000C000DF020008E1020008E3020008E502000880
:1000D000E7020008E9020008EB020008ED02000850
:1000E000EF020008F1020008F3020008F502000820
:1000F000F7020008F9020008FB020008FD020008F0
:10010000FF020008010300080303000805030008BC
:1001100007030008090300080B0300080D0300088B
:100120000F0300081103000813030008150300085B
:1001300000F002F800F03CF80AA090E8000C8244BD
:100140008344AAF10107DA4501D100F031F8AFF29A
:10015000090EBAE80F0013F0010F18BFFB1A43F0A5
:10016000010318474C4607006C460700103A24BFAD
:1001700078C878C1FAD8520724BF30C830C144BF0C
:1001800004680C607047000000230024002500264E
:10019000103A28BF78C1FBD8520728BF30C148BFEA
:1001A0000B6070471FB5AFF300801FBD10B510BDC9
:1001B00003F0B5F91146FFF7F5FF00F007F803F07B
:1001C000D3F9FFF7F3FF03F0D9F9000010B501F000
:1001D0004AF90121080202F092FF01F066F900F0ED
:1001E0003FF901F0C7F901F0F5F901F08CF90020B1
:1001F0000B49087000F0AEFD11E001F048FA01F083
:1002000079FA01F0DDFA01F0D9FB01F0D8FC01F038
:100210005AFD01F087FD01F05BFE01F0ECFDECE71B
:100220000000002000E0401E0028FCD1704770470D
:1002300000BFFEE700BFFEE700BFFEE700BFFEE72E
:1002400070477047704770477047704770477047F6
:10025000704770477047704710B5402001F048FF65
:1002600020B1402001F055FF01F034F810BD10B569
:10027000042001F03DFF58B12748FFF7D3FF26487F
:10028000FFF7D0FF042001F044FF012000F022FE20
:1002900010BD10B5082001F02BFF50B11E48FFF72C
:1002A000C1FF1D48FFF7BEFF082001F032FF00F03C
:1002B0006DFC10BD704770477047704770477047BE
:1002C0007047704770477047704770477047704776
:1002D0007047704770477047704770477047704766
:1002E0007047704770477047704770477047704756
:1002F0007047704770477047704770477047704746
:100300007047704770477047704770477047704735
:100310007047704770470000FFFF0F00FC4A1080D5
:1003200070474FF0C042108070474FF0C0431880B4
:10033000F74B1980704700B52220FFF7F2FF00BD90
:1003400000E0401E0028FCD170470146002000BF9D
:1003500001E0491C401C0A78002AFAD1704708B510
:1003600001217D2002F0D8FE4020ADF800002820B9
:100370008DF803006946E74802F048FA0C20ADF812
:10038000000003208DF8020004208DF80300694668
:10039000E14802F03BFA4CF20370ADF80000032094
:1003A0008DF8020018208DF803006946DB4802F042
:1003B0002DFA4FF68070ADF8000003208DF8020092
:1003C00018208DF803006946D34802F01FFA022076
:1003D000ADF8000003208DF8020010208DF8030016
:1003E0006946CF4802F012FA4FF40050ADF8000011
:1003F00003208DF8020010208DF803006946C748DD
:1004000002F004FA4FF40B60ADF8000003208DF801
:10041000020018208DF803006946C04802F0F6F982
:100420004FF44070ADF8000003208DF8020010205A
:100430008DF803006946B74802F0E8F90320ADF8EB
:1004400000008DF8020010208DF803006946B248C4
:1004500002F0DCF94FF40051B04802F07EFA08BD1A
:1004600010B5FFF77CFF0221AD4802F078FAAD48E5
:10047000FFF766FF0221AA4802F06FFAA948FFF7CA
:100480005FFF43F20801E320FFF74FFF1221E7204F
:10049000FFF74BFF41F23121EF20FFF746FF4FF40A
:1004A00080710120FFF741FF4FF4E0610220FFF768
:1004B0003CFF41F238010320FFF737FF0021042001
:1004C000FFF733FF40F20E210820FFF72EFF002137
:1004D0000920FFF72AFF00210A20FFF726FF00214D
:1004E0000C20FFF722FF00210D20FFF71EFF002147
:1004F0000F20FFF71AFF00211020FFF716FF07213A
:100500001120FFF712FF00211220FFF70EFF00213C
:100510001320FFF70AFF8448FFF712FF41F29021F2
:100520001020FFF702FF40F221211120FFF7FDFE0E
:100530007D48FFF705FF1A211220FFF7F6FE7A48E3
:10054000FFF7FEFE4FF4B0511320FFF7EEFE22211D
:100550002920FFF7EAFE0A212B20FFF7E6FE72486A
:10056000FFF7EEFE00212020FFF7DFFE0021212013
:10057000FFF7DBFE00213020FFF7D7FE40F202310B
:100580003120FFF7D2FE40F202213220FFF7CDFEEC
:1005900040F203113520FFF7C8FE40F60C0136206B
:1005A000FFF7C3FE40F205513720FFF7BEFE40F2D1
:1005B00004513820FFF7B9FE40F207713920FFF7E8
:1005C000B4FE40F201313C20FFF7AFFE41F20801DA
:1005D0003D20FFF7AAFE00215020FFF7A6FEEF21E5
:1005E0005120FFF7A2FE00215220FFF79EFE40F2AD
:1005F0003F115320FFF799FE4FF41C516020FFF785
:1006000094FE01216120FFF790FE00216A20FFF790
:100610008CFE00218020FFF788FE00218120FFF75B
:1006200084FE00218220FFF780FE00218320FFF757
:100630007CFE00218420FFF778FE00218520FFF753
:1006400074FE10219020FFF770FE4FF4C0619220DD
:10065000FFF76BFE03219320FFF767FE4FF48871CD
:100660009520FFF762FE00219720FFF75EFE002134
:100670009820FFF75AFE40F233110720FFF755FE8E
:1006800010BD2A49088070472849891C0880704796
:10069000A2F12003DAB27047F0B504460D460026F9
:1006A000002709E02A782146F8B2FFF7F1FF07F1A9
:1006B000100087B26D1C761C287808B1012000E07C
:1006C00000200F2E01D2012100E000210842E9D1D3
:1006D000F0BD10B5044616A12046FFF7DDFF10BDA2
:1006E00030B504460D4621462020FFF71EFE294660
:1006F0002120FFF71AFE30BD30B50546002440F238
:100700003F110020FFF7ECFFFFF715FE00BF1FE0D1
:1007100000000260000C014000180140001401407C
:1007200000100140FFFF0500FFFF0A00020000204B
:1007300020202020202020202020202020202020B9
:1007400020202020000000002846FFF7E7FD641C61
:10075000B4F5963FF8D38020FF49086030BD2DE9FD
:10076000F04304460D4616460027B846B94605F044
:10077000FF0949462046FFF7B3FF00BF26E0FFF719
:10078000DAFD4FF0000812E036F81710012000FAE9
:1007900008F0014204D1F1480088FFF7BFFD04E0F2
:1007A000EE48801E0088FFF7B9FD08F10108B8F196
:1007B000100FE9D38020E849086009F1010000F03A
:1007C000FF0949462046FFF78BFF7F1C182FD6D321
:1007D000BDE8F0832DE9F05F04460D4600260027B2
:1007E000B046B14640F23F1AB3462846FFF7ADFD8A
:1007F0008346BBF1C80F0BD951462046FFF770FF67
:100800002046FFF766FFD6A12046FFF745FF3DE0F3
:1008100040F23F112046FFF763FF32E0B8F1140FBA
:100820001AD12878202801D16D1C0EE0002606E0A0
:100830002022B9B22046FFF72BFF103F761C4E4511
:10084000F6D3A9F101002D1A834404F11800C4B2B3
:1008500040F23F1A4FF000082A7851462046FFF731
:1008600017FF08F10108AAF110001FFA80FA6D1CA9
:1008700009F101092878202803D14FF00009AAF1D5
:1008800010075FEA0B00ABF1010BC7D1BDE8F09F89
:10089000F0B504460D4616461F4621465020FFF788
:1008A00044FDA019411E5120FFF73FFD294652206B
:1008B000FFF73BFDE819411E5320FFF736FD29469F
:1008C0002046FFF70DFFF0BD00B540F23F13EF22C9
:1008D00000210846FFF7DCFF00BD00B50346FFF727
:1008E0002AFD1846FFF71AFD80209B49086000BDCD
:1008F0002DE9F04104460D46164698460027294644
:100900002046FFF7EDFEB8F1000F0FD1FFF713FD02
:1009100000BF05E09148801E0088FFF7FFFC7F1CA8
:10092000B742F7D380208C4908600FE000270BE026
:100930008A48801E0088FFF7D0FF681C85B22946D0
:100940002046FFF7CDFE7F1CB742F1D3BDE8F08112
:10095000F0B504460D4617461E4600233A46294682
:100960002046FFF7C5FFA81981B200233A4620466A
:10097000FFF7BEFF0123324629462046FFF7B8FFA6
:10098000E119491EC8B2012332462946FFF7B0FFDC
:10099000F0BD2DE9F04304460D4616461F46DDF82E
:1009A0001C803B46324629462046FFF771FFFFF781
:1009B000C2FC00BF0DE0B14606E04046FFF7AEFCCA
:1009C000A9F1010000F0FF09B9F1000FF5DC781E74
:1009D00087B2002FEFDC80205F490860FFF774FFCB
:1009E000BDE8F0832DE9F04704460D4616461F4644
:1009F0000320A0EB46084FF00009B24669E005EB82
:100A00000A0291B204EB0902D0B2FFF769FEB8B254
:100A1000FFF763FFA5EB0A0291B204EB0902D0B223
:100A2000FFF75EFEB8B2FFF758FF05EB0A0291B27E
:100A3000A4EB0902D0B2FFF753FEB8B2FFF74DFFA7
:100A4000A5EB0A0291B2A4EB0902D0B2FFF748FE6F
:100A5000B8B2FFF742FF05EB090291B204EB0A02BC
:100A6000D0B2FFF73DFEB8B2FFF737FFA5EB0902A2
:100A700091B204EB0A02D0B2FFF732FEB8B2FFF730
:100A80002CFF05EB090291B2A4EB0A02D0B2FFF7EA
:100A900027FEB8B2FFF721FFA5EB090291B2A4EB44
:100AA0000A02D0B2FFF71CFEB8B2FFF716FFB8F18A
:100AB000000F04DA062000EB8900804407E0A9EB70
:100AC0000A000A2101EB80008044AAF1010A09F121
:100AD0000109D14593D9BDE8F08730B5034600251B
:100AE0000024FFF728FC00BF14E000240FE0585D4D
:100AF0000121A140084204D118480088FFF70EFCEC
:100B000004E01648801E0088FFF708FC641C082CCF
:100B1000EDD36D1C41F298708542E6D380200E49DA
:100B2000086030BD704770477047F0B504460D4609
:100B300016461F4621462020FFF7F7FB29462120B5
:100B4000FFF7F3FB21465020FFF7EFFB2946522029
:100B5000FFF7EBFB31460FE01014014004000020CA
:100B6000202020537472696E6720746F6F206C6F41
:100B70006E672020000000005120FFF7D6FB3946A9
:100B80005320FFF7D2FBFFF7D6FBF0BD704770474D
:100B900070472DE9F04704460D4616461F46DDF81E
:100BA00020903B46324629462046FFF771FE4FF023
:100BB000000A0FE0012101EB4A0019F800004FEA9A
:100BC000002819F81A0040EA08084046FFF7A6FB7B
:100BD0000AF1010A06FB07F05045EBD8BDE8F087A3
:100BE00000E0401E0028FCD1704770B504460D4659
:100BF000164629462020FFF798FB21462120FFF7C3
:100C000094FB2220FFF78DFB3046FFF787FB70BD7A
:100C10002DE9F84F04460D4616461F460020009069
:100C200080468146009044E04FF00009CA4609E042
:100C300016F80A0040EA09094FEA09290AF10100F9
:100C400000F0FF0ABAF1030FF2DB16F80A0040EADF
:100C500009094FF0000825E0C8F1200029FA00F04A
:100C600010F0010F12D00320B8FBF0F100FB11804F
:100C70000099484378431FFA80FB621891B205EB54
:100C8000080290B25A46FFF7B0FF09E0009A2244EA
:100C900091B205EB080290B20A9A92B2FFF7A5FF53
:100CA00008F10108B8F1200FD6D3361D0098401C7A
:100CB000009000982028B7D3BDE8F88F2DE9F05FA9
:100CC00004460D4616461F464FF00008C146C24670
:100CD00000BF3AE04FF0000AD34609E016F80B00D7
:100CE00040EA0A0A4FEA0A2A0BF1010000F0FF0B62
:100CF000BBF1020FF2DB16F80B0040EA0A0A4FF0D4
:100D000000091CE0C9F118002AFA00F010F0010FE8
:100D100009D004EB080291B205EB090290B2BAB215
:100D2000FFF763FF09E004EB080291B205EB09024B
:100D300090B20A9A92B2FFF758FF09F10109B9F18E
:100D4000180FDFD3F61C08F10108B8F1180FC1D352
:100D5000BDE8F09F08B54EF25550FFF7CDFC4EF2BE
:100D6000555300934FF47843FF4AD7213420FFF7BF
:100D70004FFF4EF2555300934FF6E073FA4A80321C
:100D8000D7215620FFF744FF4EF2555300934FF6FC
:100D90001F03F64AD7217820FFF73AFF4EF255534A
:100DA00000934FF4FC63F14A8032D7219A20FFF779
:100DB0002FFF4EF25553009340F21F53EC4AAA21E5
:100DC0002420FFF77BFF4EF25553009340F21F5350
:100DD000E74A4832AA213C20FFF770FF4EF25553F4
:100DE000009340F21F53E24A9032AA215420FFF7A9
:100DF00065FF4EF25553009340F21F53DC4AAA217F
:100E00008420FFF75BFF4EF25553009340F21F53CF
:100E1000D74AD832AA219C20FFF750FF4EF25553F3
:100E2000009340F21F53D34AAA21B420FFF746FF94
:100E30004EF25553009340F21F53CE4A483286215A
:100E40002420FFF73BFF4EF25553009340F21F530F
:100E5000C84A903286213C20FFF730FF4EF25553AE
:100E6000009340F21F53C34AD83286215420FFF723
:100E700025FF4EF25553009340F21F53BC4A862182
:100E80008420FFF71BFF4EF25553009340F21F538F
:100E9000B94A8621B420FFF711FF4FF4BC630093D9
:100EA000282348223F215620FFF773FD4EF25003BE
:100EB00000931F23B14A43215A20FFF7A9FE4EF2A7
:100EC000500300931F23AD4A803243217A20FFF75D
:100ED0009FFE08BD38B504464FF4FC630093182309
:100EE000F02200210846FFF754FD002C3ED0012CD3
:100EF00015D0022C4ED14FF4FC6300931F23A04A5F
:100F000000216020FFF7DAFE4FF4FC6300931F23FB
:100F10009B4A483200217820FFF7D0FE00BF4FF4F3
:100F2000FC6300931F23974A00210846FFF7C6FE83
:100F30004FF4FC6300931F23924A4832002118208B
:100F4000FFF7BCFE4FF4FC6300931F238E4A002181
:100F5000C020FFF7B3FE4FF4FC6300931F238A4ABF
:100F600048320021D820FFF7A9FE13E04FF4FC63BC
:100F700000931F23834A00210846FFF79FFE4FF48A
:100F8000FC6300931F237F4A483200211820FFF79B
:100F900095FE00BF00BF38BD38B504460D46062D8E
:100FA0002AD2DFE805F0C1032A4F759B4FF61F03D5
:100FB00000931B234D2284210020FFF7EAFC4FF40D
:100FC000FC6300930023714A85210220FFF776FE1F
:100FD0004FF4FC63009300236C4A483285211A20A9
:100FE000FFF76CFE4FF4FC6300930023674A9032D6
:100FF00085213220FFF762FE96E04FF61F03009333
:101000001B234D2269210020FFF7C3FC4FF4FC6332
:10101000009300235E4A6A210220FFF74FFE4FF43F
:10102000FC63009300235B4A6A211A20FFF746FE07
:101030004FF4FC63009300234D4A6A213220FFF7EE
:101040003DFE71E04FF61F0300931B234D224E21FE
:101050000020FFF79EFC4FF4FC63009300234C4AF2
:101060004F210220FFF72AFE4FF4FC630093002378
:10107000484A48324F211A20FFF720FE4FF4FC6304
:10108000009300233A4A4F213220FFF717FE4BE02E
:101090004FF61F0300931B234D2233210020FFF73F
:1010A00078FC4FF4FC6300930023394A342102207A
:1010B000FFF704FE4FF4FC6300930023354A90329F
:1010C00034211A20FFF7FAFD4FF4FC63009300234C
:1010D000274A34213220FFF7F1FD25E04FF61F03A8
:1010E00000931B234D2218210020FFF752FC4FF4E0
:1010F000FC6300930023284A19210220FFF7DEFD3C
:101100004FF4FC6300930023244A19211A20FFF7AF
:10111000D5FD4FF4FC63009300231F4A4832192188
:101120003220FFF7CBFD00BF00BF062C43D2DFE823
:1011300004F0CE03436588AB4FF4784300931B2340
:101140004D2284210020FFF724FC1F23009300235D
:101150000E4A85210220FFF7B1FD1F2300930023D3
:101160000A4A483285211BE0DA350008DA360008E1
:10117000DA370008FA3800081A3A0008623A00081C
:10118000823C0008F23B0008623B0008C23E0008B7
:10119000EA3D0008123D0008323E00089235000882
:1011A0001A20FFF78BFD1F2300930023A74A8521F8
:1011B0003220FFF783FD8AE04FF4784300931B232E
:1011C0004D2269210020FFF7E4FB1F230093002339
:1011D0009F4A6A210220FFF771FD1F23009300231D
:1011E0009C4A6A211A20FFF769FD1F230093002300
:1011F000994A6A213220FFF761FD68E04FF4784395
:1012000000931B234D224E210020FFF7C2FB1F231A
:10121000009300238E4A4F210220FFF74FFD1F232A
:10122000009300238B4A48324F211A20FFF746FDD6
:101230001F2300930023884A4F213220FFF73EFDF1
:1012400045E04FF4784300931B234D2233210020C7
:10125000FFF79FFB1F23009300237D4A34210220C8
:10126000FFF72CFD1F23009300237A4A903234218C
:101270001A20FFF723FD1F2300930023764A342111
:101280003220FFF71BFD22E04FF4784300931B232D
:101290004D2218210020FFF77CFB1F230093002321
:1012A0006E4A19210220FFF709FD1F230093002336
:1012B0006B4A19211A20FFF701FD1F230093002319
:1012C000664A483219213220FFF7F8FC00BF00BF00
:1012D000284638BD08B54FF4784300931B234D22B0
:1012E00018210020FFF755FB1F23009300235B4AC2
:1012F00019210220FFF7E2FC1F2300930023584A24
:1013000019211A20FFF7DAFC1F2300930023534A08
:10131000483219213220FFF7D1FC4FF47A70FFF7E1
:101320005FFC4FF4784300931B234D2233210020B0
:10133000FFF72FFB1F2300930023454A342102208F
:10134000FFF7BCFC1F2300930023424A9032342154
:101350001A20FFF7B3FC1F23009300233E4A3421D9
:101360003220FFF7ABFC4FF47A70FFF739FC4FF4F3
:10137000784300931B234D224E210020FFF709FBE9
:101380001F2300930023324A4F210220FFF796FCCF
:101390001F23009300232F4A48324F211A20FFF7C2
:1013A0008DFC1F23009300232B4A4F213220FFF78F
:1013B00085FC4FF47A70FFF713FC4FF478430093E9
:1013C0001B234D2269210020FFF7E3FA1F2300931E
:1013D00000231F4A6A210220FFF770FC1F2300939D
:1013E00000231C4A6A211A20FFF768FC1F23009380
:1013F0000023194A6A213220FFF760FC4FF47A700B
:10140000FFF7EEFB4FF4784300931B234D2284211A
:101410000020FFF7BEFA1F23009300230B4A903AE7
:1014200085210220FFF74AFC1F2300930023074A6F
:10143000483A85211A20FFF741FC1F23009300231F
:10144000024A85213220FFF739FC08BD523F0008CF
:10145000EA3D0008123D0008DA370008323E000875
:1014600092350008704710B58148006840F00100CF
:101470007F490860084640687E4908407C494860CA
:10148000084600687C4908407949086008460068B9
:1014900020F4802008600846406820F4FE00486080
:1014A00000208860FFF7DEFF10BD00B597B0022076
:1014B00001900020029005200390002004900590E8
:1014C00006904FF080500790002008900990082067
:1014D0000A9010200B9000200C900D900E900F9011
:1014E0004FF480501090002011901290149001A899
:1014F0001590169008A800F064FE0121002000F06D
:10150000CDFF17B000BD08B54FF4A06001F0EBFAB5
:1015100017208DF8000000208DF801008DF80200E2
:1015200001208DF80300684601F0E3FA4FF4C06033
:1015300001F0D9FA08208DF8000000208DF8010094
:101540008DF8020001208DF80300684601F0D1FA01
:101550004FF4C06001F0C7FA09208DF800000120A7
:101560008DF801008DF802008DF80300684601F047
:10157000C0FA08BD1CB50221042001F045FA032180
:10158000042001F041FA082000F0C3FD042000F01F
:10159000C0FD0C20009000208DF8040008208DF87C
:1015A000050001208DF80600684600F025FD0621A3
:1015B000012001F029FA4020009000208DF804005D
:1015C0000C208DF8050001208DF80600684600F01B
:1015D00013FD1CBD00B587B00121080301F09CFD7F
:1015E0000121042001F098FDE020ADF80400032063
:1015F0008DF8060018208DF8070001A91F4801F09A
:1016000005F91020ADF8040003208DF80600102025
:101610008DF8070001A9194801F0F8F810211748C2
:1016200001F09BF90020ADF808004FF48270ADF88E
:101630000A000020ADF80C000220ADF80E000120D9
:10164000ADF810004002ADF812001820ADF81400FB
:101650000020ADF816000720ADF8180002A90848D0
:1016600001F0EAFD0121064801F07EFE07B000BD51
:10167000001002400000FFF8FFFFF6FE00080140E6
:101680000030014000E0401E0028FCD1704770B5DA
:1016900041F208010320FEF748FE4FF6FF70FFF706
:1016A0002BF840F23F13EF2200210846FFF73DFAE6
:1016B0004FF496340FE0012101EB4400FD49085C32
:1016C000050211F8140005432846FEF727FE0F20F7
:1016D000FFF7D8FF641E002CEDDCF748FFF7D2FFC0
:1016E000F548FFF7CFFFF448FFF7CCFFF248FFF7CC
:1016F000C9FF70BD10B541F208010320FEF715FEC9
:10170000012415E01F23A2B2A0217820FFF76AF977
:101710004FF6FF7304F1130082B2A0217820FFF787
:1017200061F91F230522A0217820FFF75BF9641CD3
:10173000282CE7DB012415E01F23A2B2A02178208A
:10174000FFF750F94FF6FF7304F1130082B2A021A6
:101750007820FFF747F91F230522A0217820FFF703
:1017600041F9641C502CE7DB012426E01F23A2B2C0
:10177000A0217820FFF736F94FF6FF7304F113002C
:1017800082B2A0217820FFF72DF91F230522A02186
:101790007820FFF727F91F2304F1270082B2A02148
:1017A0007820FFF71FF94FF6FF7304F13B0082B278
:1017B000A0217820FFF716F9641C782CD6DB10BD29
:1017C0002DE9F041182741F238010320FEF7ADFD65
:1017D0000025E2E005EB85010A2303EB410205EB5E
:1017E0008501480040F23F130021FFF79EF94FF4B6
:1017F000486005FB00F40DE06000401CAF49085C48
:101800004FEA002811F8140040EA08084046FEF7A5
:1018100085FD641C05EBC50000EB05104FF4486125
:1018200001EBC010A042E7DC40F6FF20FFF72AFFE3
:1018300000263CE005EB850C4FEA4C0CCCF5A07380
:1018400006F10A0205EB850C4FEA4C0CCCF59B71B6
:101850001046FFF76AF905EB85004000C0F59B7163
:1018600006F10A0000EB800001EB80140DE060003F
:10187000401C9249085C4FEA002811F8140040EA25
:1018800008084046FEF74AFD641C05EB8500400051
:10189000C0F5A07106F10A004FF4A07202FB00101F
:1018A000A042E4DA40F6FF20FFF7ECFE761CE62EBD
:1018B000C0DB40F6FF20FFF7E5FE7F1E07EB870148
:1018C0000A2303EB410207EB8701480040F23F1374
:1018D0000021FFF72AF94FF4486007FB00F40DE000
:1018E0006000401C7549085C4FEA002811F814009C
:1018F00040EA08084046FEF711FD641C07EBC700EC
:1019000000EB07104FF4486101EBC010A042E7DC88
:1019100040F6FF20FFF7B6FE002637E005EB850C0A
:101920004FEA4C0C0CF10A0306F10A0205EB850C98
:101930004FEA4C011046FFF7F8F805EB850041002F
:1019400006F10A0000EB800001EB80140DE060005E
:10195000401C5A49085C4FEA002811F8140040EA7C
:1019600008084046FEF7DAFC641C05EB85004100E0
:101970000A3106F10A004FF4A07202FB0010A042E7
:10198000E5DA40F6FF20FFF77DFE761CE62EC5DB8C
:1019900040F6FF20FFF776FE6D1C0C2DFFF61AAF08
:1019A0004748FFF76FFE4648FFF76CFE4448FFF7D5
:1019B00069FE4348FFF766FEBDE8F08170B541F26D
:1019C00008010320FEF7B1FC0024E5E040F23F13DC
:1019D000224600212046FFF7A8F8002513E0680002
:1019E00004EB840100EBC110401C3249085C060284
:1019F00004EB8400C00100EB4500085C0643304660
:101A0000FEF78CFC6D1CB5F5A07FE8DB04F1280027
:101A100040F23F1302460021FFF787F8002517E048
:101A2000690004F1280000EB800001EBC010401CAD
:101A30002049085C060204F1280000EB8000C00188
:101A400000EB4500085C06433046FEF767FC6D1C62
:101A5000B5F5A07FE4DB40F23F1304F15002002112
:101A60001046FFF762F8002517E0690004F1500006
:101A700000EB800001EBC010401C0E49085C060220
:101A800004F1500000EB8000C00100EB4500085C51
:101A900006433046FEF742FC6D1CB5F5A07FE4DB43
:101AA00040F23F1304F1780200211046FFF73DF8A1
:101AB00000251FE09A970208FFFF0F009A3F0008D9
:101AC000FFFF0A00690004F1780000EB800001EBE1
:101AD000C010401CF949085C060204F1780000EBD4
:101AE0008000C00100EB4500085C06433046FEF76D
:101AF00015FC6D1CB5F5A07FE4DB40F23F1304F14B
:101B0000A00200211046FFF710F8002517E0690039
:101B100004F1A00000EB800001EBC010401CE7497D
:101B2000085C060204F1A00000EB8000C00100EB9D
:101B30004500085C06433046FEF7F0FB6D1CB5F52A
:101B4000A07FE4DB40F23F1304F1C80200211046FD
:101B5000FEF7EBFF002517E0690004F1C80000EB79
:101B6000800001EBC010401CD449085C060204F15F
:101B7000C80000EB8000C00100EB4500085C064394
:101B80003046FEF7CBFB6D1CB5F5A07FE4DB4FF6CE
:101B9000FF70FFF777FD641C282CFFF617AFC848CD
:101BA000FFF770FDC648FFF76DFDC548FFF76AFDFA
:101BB000C348FFF767FDC248FFF764FD70BD2DE91C
:101BC000F04141F208010320FEF7AFFB00266AE076
:101BD00006EB86010A2303EB410206EB860148006F
:101BE00040F23F130021FEF7A0FF4FF4486006FBD0
:101BF00000F40BE06000401CB249085C070211F8D9
:101C0000140007433846FEF789FB641C06EBC60048
:101C100000EB06104FF4486101EBC010A042E9DC74
:101C2000002536E006EB860C4FEA4C0CCCF5A07391
:101C300005F10A0206EB860C4FEA4C0CCCF59B71C1
:101C40001046FEF772FF06EB86004000C0F59B7160
:101C500005F10A0000EB800001EB80140BE060004E
:101C6000401C9849085C070211F8140007433846E5
:101C7000FEF754FB641C06EB86004000C0F5A07123
:101C800005F10A004FF4A07202FB0010A042E6DA50
:101C90006D1CE62DC6DB40F6FF20FFF7F3FC8848FD
:101CA000FFF7F0FC761C182E92DB8548FFF7EAFC64
:101CB0008348FFF7E7FC8248FFF7E4FC8048FFF722
:101CC000E1FCBDE8F08170B54FF481510320FEF7CF
:101CD0002CFB40F23F13EF2200210846FEF725FFC0
:101CE0004FF496340FE0012101EB44007649085C83
:101CF000050211F8140005432846FEF70FFB0F20DC
:101D0000FFF7C0FC641E002CEDDC7048FFF7BAFC46
:101D10006E48FFF7B7FC6D48FFF7B4FC6B48FFF760
:101D2000B1FC70BD70B541F238010320FEF7FDFA39
:101D300000244EE004F17802104640F23F130021E7
:101D4000FEF7F3FE002517E0690004F1780000EBD0
:101D5000800001EBC010401C5A49085C060204F1E7
:101D6000780000EB8000C00100EB4500085C0643F2
:101D70003046FEF7D3FA6D1CB5F5A07FE4DBC4F165
:101D80007702C4F1770040F23F130021FEF7CDFE49
:101D9000002517E06800C4F1780101EB810100EB38
:101DA000C110401C4749085C0602C4F1780000EBF2
:101DB0008000C00100EB4500085C06433046FEF79A
:101DC000ADFA6D1CB5F5A07FE4DB0F20FFF75AFCE0
:101DD000641C772CAEDB3A48FFF754FC3848FFF719
:101DE00051FC3748FFF74EFC3548FFF74BFC3448B1
:101DF000FFF748FC70BD10B501245CE01F23A2B2C0
:101E000050213C20FEF7EEFD4FF6FF7304F10A006F
:101E100082B250213C20FEF7E5FD1F2304F114009F
:101E200082B250213C20FEF7DDFD1F23A2B2F0213B
:101E30003C20FEF7D7FD4FF6FF7304F10A0082B293
:101E4000F0213C20FEF7CEFD1F2304F1140082B2E6
:101E5000F0213C20FEF7C6FD1F23A2B25021B42082
:101E6000FEF7C0FD4FF6FF7304F10A0082B2502165
:101E7000B420FEF7B7FD1F2304F1140082B25021F5
:101E8000B420FEF7AFFD1F23A2B2F021B420FEF76D
:101E9000A9FD4FF6FF7304F10A0082B2F021B420CD
:101EA000FEF7A0FD1F2304F1140082B2F021B4203C
:101EB000FEF798FD641C142CA0DB10BD9A97020855
:101EC000FFFF0A009A3F00089AEF0408FFFF0F0087
:101ED00070B541F210010320FEF727FA40F23F13DC
:101EE000EF2200210846FEF720FE4FF496340FE063
:101EF000012101EB44000E49085C050211F81400B1
:101F000005432846FEF70AFA0F20FFF7BBFB641EC5
:101F1000002CEDDC0748FFF7B5FB0648FFF7B2FBE6
:101F20000448FFF7AFFB0348FFF7ACFB70BD0000B0
:101F30009AEF0408FFFF0F0030BF704720BF7047C3
:101F400040BF7047BFF36F8F7047BFF34F8F70472D
:101F5000BFF35F8F704701DF7047EFF31480704766
:101F600080F31488BFF36F8F7047EFF309807047D9
:101F700080F309887047EFF30880704780F3088882
:101F8000704762B6704772B67047EFF310807047C3
:101F900071B6704761B67047EFF31380704780F3F6
:101FA00011887047EFF31280704740BA704700BA4B
:101FB000704700000348004703480449044A054BA2
:101FC00070470000310100087000002070080020F8
:101FD000700400207004002000205049086050491F
:101FE000C1F804044D4908310860091D08604D48D6
:101FF0004A49143108607047817900294CD048491A
:10200000D1F8001402689143454AC2F80014114601
:10201000D1F8041402689143404A121D11600179FD
:102020003F4A1144D1F800140268114302793C4B35
:102030001A44C2F800141946D1F8081402689143F2
:102040001A46C2F808141146D1F80C1402689143DC
:10205000324A0C3211604179102910D11946D1F859
:102060000814026811431A46C2F808141146D1F840
:102070000C14026811431A46C2F80C1418E0417996
:10208000274A1144D1F80014026811434279244BC5
:102090001A44C2F800140BE00179214A1144D1F826
:1020A00000140268914302791D4B1A44C2F80014CF
:1020B00070470021016001710C2141710021817183
:1020C00070471649103109680143154AC2F81014C7
:1020D000704701460020114A143212680A4201D0AA
:1020E000012000E0002070470C491431086070475F
:1020F000014600200022094B1B6803EA0102084B3D
:10210000D3F814340B4202D00AB1012000E00020C1
:102110007047024914310860704700000004014014
:1021200000000140FFFF070030B943F2DB014FF030
:10213000204242F8201005E043F2D2014FF0204245
:1021400042F820106FF07042411C4FF0204343F8DA
:10215000212011461A4602EB8002C2F80411704792
:1021600010280AD118214FF02042116640215166F3
:102170004FF0FC319166D16610E01821F94A1160E8
:1021800040214FF02042C2F884104FF0FC31F54A54
:10219000083211604FF02042C2F88C1070471820AE
:1021A000F0492031086000200906C1F8A4004FF072
:1021B000FC30EC4928310860091D0860091D0860E1
:1021C0007047D0E901121143C268114302691143FB
:1021D0004269114382691143C2691143026A114382
:1021E000426A1143826A1143C26A1143026B11436E
:1021F0004FF02043026843F822108168082908D173
:102200001A46016852F8211041F04001026843F873
:102210002210416B0968426B526841EA0211426B1D
:10222000926841EA0221426BD26841EA0241426B64
:10223000126941EA0251426B526941EA0262416B02
:1022400089690A430168491C4FF0204343F8212063
:10225000816AB1F5804F1ED1816B0968826B52682B
:1022600041EA0211826B926841EA0221826BD268D4
:1022700041EA0241826B126941EA0251826B526962
:1022800041EA0261826B92691143026803EB8202A8
:10229000C2F8041108E06FF070414FF0204302686B
:1022A00003EB8202C2F80411704730B5002100220E
:1022B0000023446844F0080485682C43C5682C4317
:1022C00005692C4345692C43856944EA4524C56961
:1022D00044EA4531046A2468056A6D6844EA0524C5
:1022E000056AAD6844EA0544056AED6844EA05629A
:1022F000446A2468456A6D6844EA0524456AAD6805
:1023000044EA0544456AED6844EA05630468102C14
:1023100005D14FF020442166A266E36608E0914CA7
:1023200021604FF02044C4F888208E4C0C34236088
:1023300030BDD0E900121143826841EA4221C268EF
:1023400041EA4231874A2032116001690968026915
:10235000526841EA02210269926841EA0241026937
:10236000D26841EA02617F4A2832116041690968F6
:102370004269526841EA02214269926841EA024197
:102380004269D26841EA0261764A2C321160816961
:1023900009688269526841EA02218269926841EAC9
:1023A00002418269D26841EA02614FF02042C2F8DC
:1023B000B01070470021016002214160002181605E
:1023C000C160016141618161C1614FF4805101626D
:1023D0004900416200218162C16201630F21426BA9
:1023E0001160426B5160FF21426B91600F21426B83
:1023F000D160426B1161426B51610021426B91616E
:102400000F21826B1160826B5160FF21826B9160A2
:102410000F21826BD160826B1161826B516100214F
:10242000826B9161704710210160002141608160E1
:10243000C160016141618161C161FC21026A116079
:10244000026A5160026A9160026AD160426A116058
:10245000426A5160426A9160426AD16070470021CD
:10246000016041608160C160FC2102691160026904
:102470005160026991600269D160426911604269EC
:102480005160426991604269D160826911608269DC
:102490005160826991608269D160704751B14FF09B
:1024A000204252F8202042F001024FF0204343F82E
:1024B000202009E04FF0204252F820202A4B1A40F9
:1024C0004FF0204343F82020704799B1102808D1DD
:1024D0004FF02042126E42F004024FF020431A6681
:1024E0001DE0204A126842F004024FF02043C3F876
:1024F000802014E0102809D14FF02042126E1A4BB0
:10250000DB1E1A404FF020431A6608E0154A126895
:10251000154BDB1E1A404FF02043C3F88020704754
:1025200048B110492031096841F004014FF02042C0
:10253000C2F8A01009E00B49203109680A4AD21EEE
:1025400011404FF02042C2F8A0107047B9B11028D6
:102550000CD14FF02042126E42F040024FF0204367
:102560001A661FE0800000A0FEFF0F00714A12688B
:1025700042F040024FF02043C3F8802012E01028C0
:1025800008D14FF02042126E6B4B1A404FF020439F
:102590001A6607E0674A1268674B1A404FF02043FB
:1025A000C3F88020704701460020102903D14FF066
:1025B0002042506F02E05F4A14321068704710B535
:1025C000F2B1102807D14FF020435B6E0B434FF060
:1025D0002044636632E0B0F5807F08D1554B1B1D67
:1025E0001B680B434FF02044C4F8843026E0514B65
:1025F00024331B680B434FF02044C4F8A4301DE083
:10260000102807D14FF020435B6E8B434FF02044DE
:10261000636613E0B0F5807F08D1464B1B1D1B6835
:102620008B434FF02044C4F8843007E0414B2433FF
:102630001B688B434FF02044C4F8A43010BD10B584
:10264000034600200022102B03D14FF02044626E7D
:1026500009E0B3F5807F03D1364C241D226802E0E7
:10266000344C243422680A4201D0012000E00020CA
:1026700010BD102807D14FF02042526E8A434FF010
:1026800020435A6613E0B0F5807F08D1294A121D15
:1026900012688A434FF02043C3F8842007E0254A9C
:1026A000243212688A434FF02043C3F8A4207047B5
:1026B00070B502460020002300240025102A03D113
:1026C0004FF02046736E09E0B2F5807F03D1194EBA
:1026D000361D336802E0174E2436336803EA0104DE
:1026E00003EAD10514B10DB1012000E0002070BD56
:1026F000102808D14FF02042526E22EAD1024FF04A
:1027000020435A6615E0B0F5807F09D1094A121DB1
:10271000126822EAD1024FF02043C3F8842008E077
:10272000044A2432126822EAD1024FF02043C3F84F
:10273000A4207047800000A0BFFF0F0010B5044622
:10274000C049601A8C422FD009DCBF48201810D035
:10275000B0F5806F16D0B0F5006F4AD11BE0B0F530
:10276000806F2AD0B0F5006F30D0B0F5406F40D107
:1027700035E00121042000F0E9FC0021042000F0F4
:10278000E5FC37E00121082000F0E0FC00210820F2
:1027900000F0DCFC2EE00121102000F0D7FC00212D
:1027A000102000F0D3FC25E00121202000F0CEFC19
:1027B0000021202000F0CAFC1CE00121402000F094
:1027C000C5FC0021402000F0C1FC13E00121802065
:1027D00000F0BCFC0021802000F0B8FC0AE00121E0
:1027E000080200F0B3FC00214FF4807000F0AEFC52
:1027F00000E000BF00BF10BD10B50121084600F089
:10280000A5FC0021012000F0A1FC10BDF0B50022C4
:102810000023002400250026002791F803C00CF0B7
:102820000F0291F803C01CF0100F03D091F802C002
:102830004CEA0202B1F800C01CF0FF0F30D006686D
:1028400000242AE04FF0010C0CFA04F5B1F800C0A6
:102850000CEA0503AB421FD1A5004FF00F0C0CFA98
:1028600005F7BE4302FA05FC4CEA060691F803C0E0
:10287000BCF1280F05D14FF0010C0CFA04FCC0F894
:1028800014C091F803C0BCF1480F05D14FF0010C02
:102890000CFA04FCC0F810C0641C082CD2D30660EB
:1028A000B1F800C0BCF1FF0F34DD466800242EE013
:1028B00004F1080C4FF0010E0EFA0CF5B1F800C04F
:1028C0000CEA0503AB4221D1A5004FF00F0C0CFA26
:1028D00005F7BE4302FA05FC4CEA060691F803C070
:1028E000BCF1280F05D104F1080C0EFA0CFEC0F85B
:1028F00014E091F803C0BCF1480F07D104F1080CB3
:102900004FF0010E0EFA0CFEC0F810E0641C082C0B
:10291000CED34660F0BD4FF6FF7101800221817079
:102920000421C17070470246002093680B4201D019
:10293000012000E0002070470146886880B270479F
:1029400002460020D3680B4201D0012000E00020A5
:1029500070470146C86880B27047016170474161A5
:1029600070470AB1016100E041617047C160704782
:102970004FF480320A438261816182618269826997
:1029800070470022314B1A684FF680731A4042EAB2
:1029900000120A432D4B1A6070472D49C8617047D9
:1029A000F0B50022002300250024284E7568C0F3EE
:1029B000034482B200F44016B6F5401F08D125F05A
:1029C0007065224E766826F07066204F7E6012E0B9
:1029D00000F48016B6F5801F06D1032606FA04F32C
:1029E0009D4345F0706506E0460D360102FA06F695
:1029F000B54345F0706521B1460D360102FA06F681
:102A00003543124E7560F0BD30B500228B071C0FA8
:102A10000F2303FA04F20D4B08338C1053F82440B3
:102A200094438D1043F825408C1053F824308C07C4
:102A3000240F00FA04F42343044C08348D1044F8A6
:102A4000253030BD0014014000F8FEBF00000140F9
:102A5000000020420020411EF24A11600A09F1499B
:102A60008039C1F88420411E4FF0E022C2F8801264
:102A70000A09ED490A6000BF04E00022EB4941F871
:102A80002020401C0F28F8D3704700204FF0206111
:102A9000E74A116000214FF0E022C2F8081DE54925
:102AA000E34A083211600021121D1160121D1160ED
:102AB00000BF05E00022DE49143141F82020401C0F
:102AC0000328F7D30021DA4A20321160491E4FF063
:102AD000E022C2F8281DD64A283211604FF0E022C9
:102AE000C2F8301D7047D3490143D14A0832116002
:102AF0007047F0B500210022002300240F25C6787E
:102B0000002E36D0CA4E0836366806F4E066C6F5A2
:102B1000E066310AC1F10404CD40467806FA04F1BA
:102B200086782E40314309010678B607F60EB1408B
:102B3000BE4E0778BF1056F827200678B607F70E66
:102B4000FF2606FA07F39A4319400A43B74E07785F
:102B5000BF1046F82720067806F01F070126BE4062
:102B600007787F114FF0E02C0CEB8707C7F8006166
:102B70000BE0067806F01F060127B740A94E90F833
:102B800000C04FEA6C1C46F82C70F0BD00210170AB
:102B900041708170C170704710B5FFF7F4F910BD36
:102BA00010B5FFF7EEF910BD10B5FFF7F1F910BD44
:102BB00010B5FFF7EFF910BD10B504462001FFF77F
:102BC000EEF910BD10B5FFF7EDF910BD984800689B
:102BD000C0F30930704710B501460020002201F013
:102BE0001F04012303FA04F28E4B80334C1153F877
:102BF00024301340934201D1012000E0002010BD99
:102C00008D490860704700F01F0101228A40864903
:102C1000091F431141F82320704785480068C0F31D
:102C20000900704710B501460020002201F01F0482
:102C3000012303FA04F27C4B7C334C1153F824300B
:102C40001340934201D1012000E0002010BD7848DC
:102C5000001F00687047794A0A400243744B1B1DED
:102C60001A6070477348001D714908310860704749
:102C70007048401C6E4908310860704741B16C4A89
:102C80000C32126802434FF0E023C3F8102D07E026
:102C9000674A0C32126882434FF0E023C3F8102DCC
:102CA000704710B5002200F01F04012303FA04F25C
:102CB00041B15F4B20331B6813434FF0E024C4F84D
:102CC000243D07E05A4B20331B6893434FF0E02428
:102CD000C4F8243D10BDF0B50023FF2400250026D4
:102CE000534F08373F6807F4E067C7F5E0673E0ACF
:102CF000C6F10403F44001FA03F602EA04073E4376
:102D0000360100F0C0039B09C0F30124E700BE4078
:102D10004FEAC40CFF2707FA0CF5454F143757F854
:102D200023C02CEA050C47F823C057F823C04CEA0F
:102D3000060C47F823C0F0BD10B501460020002264
:102D400000238B0A03F00F03012404FA03F3384C29
:102D50002034246804EA03029A4201D1012000E0F1
:102D6000002010BD002100F01F01314A136801222C
:102D70008A4013434FF0E022C2F8043D704710B57B
:102D8000002100F01F012A4A13684C1E0122A240B4
:102D900013434FF0E022C2F8043D10BD10B50146C8
:102DA000002000230022C1F38332012404FA02F23E
:102DB0001F4C2034246804EA0203934201D101200D
:102DC00000E0002010BD30B50146002000220023A5
:102DD000C1F38142C1F301531AB9154C283420685C
:102DE00011E0012A0CD1124C24342468DD0024FAAD
:102DF00005F0022B02D000F00F0004E0C0B202E0A8
:102E00000B4C2C34206830BD014600200022C1F359
:102E100080521AB9064B3033186802E0044B343341
:102E20001868704780E100E084E200E000E400E020
:102E300004ED00E00000FA0500EF00E080FFFF1F56
:102E4000DE48006840F00100DC4908600846406840
:102E5000DB490840D949486008460068D94908401C
:102E6000D64908600846006820F4802008600846BB
:102E7000406820F4FE004860002088607047CF4919
:102E8000096821F48031CD4A11601146096821F4A6
:102E900080211160B0F5803F03D0B0F5802F0ED1B6
:102EA00006E0C649096841F48031C44A116007E070
:102EB000C249096841F4A021C04A116000E000BF86
:102EC00000BF704710B501460022002300204A11C0
:102ED000012A02D1B94C236806E0022A02D1B74C7C
:102EE000236A01E0B54C636A01F01F02012494409B
:102EF0001C4201D0012000E0002010BD10B50024CC
:102F000000BF3120FFF7DEFFAF490870081F0068DF
:102F1000401C091F0860081D007828B90846006891
:102F2000A0F58071FF39ECD13120FFF7CBFF08B15C
:102F3000012400E00024204610BD00219F4A1168B2
:102F400021F0F80141EAC001116070479F49086013
:102F500070470022994B5A6822F47C1240EA010320
:102F60001A43964B5A60704798490866704700218B
:102F7000924A516821F003010143516070478F4824
:102F8000406800F00C00704700218C4A516821F025
:102F9000F0010143516070470021884A516821F4D3
:102FA000E0610143516070470021844A516821F477
:102FB000605141EAC0015160704729B17F4A527A9D
:102FC00002437E4B5A7206E07C4A527AC343DBB21C
:102FD0001A407A4B5A7270477C49D8310860704762
:102FE0000021764A516821F4404101435160704705
:102FF0000021724A20321170704A82F82010012894
:1030000002D004280AD104E001216C4A2032117058
:1030100005E00521694A2032117000E000BF00BFC1
:1030200070476B49086070476449096A0143634A05
:1030300011627047664944390860704730B5002115
:103040000022002300245D4D6D6805F00C0121B1C4
:10305000042905D0082923D105E05E4D056022E052
:103060005C4D05601FE0554D6D6805F4701202253A
:1030700005EB9242514D6D6805F480331BB9564DF6
:10308000554305600BE04D4D6D6815F4003F03D0CE
:10309000514D5543056002E04E4D5543056002E039
:1030A0004C4D056000BF00BF444D6D6805F0F00158
:1030B00009094A4D6C5C0568E54045603F4D6D6807
:1030C00005F4E061090A454D6C5C4568E5408560A2
:1030D0003A4D6D6805F46051C90A404D6C5C456815
:1030E000E540C560354D6D6805F44041890B3B4DA9
:1030F00010356C5CC568B5FBF4F5056130BD29B1D0
:103100002E4A526902432D4B5A6104E02B4A526900
:1031100082432A4B5A61704729B1284A9269024377
:10312000264B9A6104E0254A92698243234B9A61B7
:10313000704729B1214AD2690243204BDA6104E089
:103140001E4AD26982431D4BDA61704729B11B4A7E
:10315000D2680243194BDA6004E0184AD26882430D
:10316000164BDA60704729B1144A12690243134BB7
:103170001A6104E0114A12698243104B1A617047C8
:1031800013494039086070471049C86470470B49BB
:10319000C87170470948406A40F08070074948622A
:1031A000704701460020054A92680A4201D001207A
:1031B00000E000207047014988727047001002400B
:1031C0000000FFF8FFFFF6FE0C0000200000424266
:1031D0008004424200127A0000093D009A47070825
:1031E00010B50446CB4820180FD0B0F5806F16D02C
:1031F000B0F5784F1DD101210803FFF7A7FF00218B
:103200004FF48050FFF7A2FF14E001218803FFF77D
:10321000AAFF00214FF48040FFF7A5FF0AE001213B
:10322000C803FFF7A0FF00214FF40040FFF79BFF0A
:1032300000E000BF00BF10BD10B50022028802F4FC
:1032400041520B884C8823438C882343CC882343EA
:103250000C8923434C8923438C892343CC89234302
:103260001A430280838B4FF2FF74234083830B8ABF
:10327000038210BD2DE9F04786B004460D460026B6
:103280000227B0464FF00109B246A08B4FF2400131
:103290000840A08302202084A68B2889022801D11F
:1032A00000BF31E0A88810B94FF0010901E04FF0EC
:1032B000020901A8FFF7C2FEE888B0F5007F0BD134
:1032C000019800EB8000400029890902B0FBF1F071
:1032D000401D1FFA80FA0CE04FEA49102989484343
:1032E000019901EB81014900B1FBF0F0401D1FFA8B
:1032F00080FA0A20BAFBF0FA0AF00108AAEB0800EB
:10330000C0F34F074FEA0828022F01DBFF2F02DD31
:1033100002274FF0000847EA0800E98808432084A4
:10332000288840F4006069880843A98808436989AF
:1033300008430643A68306B0BDE8F087002101805C
:1033400041808180C180018141818181C1810721CA
:10335000018270470021018041808180C18002216B
:10336000018100214181704721B1028842F0400271
:10337000028004E002884FF6BF731A400280704753
:1033800021B1828B42F48062828304E0828B4FF60B
:10339000FF331A408283704770B5002300240B115D
:1033A00001259D40ACB21AB185882543858004E093
:1033B0008588E643B6B23540858070BD10B51AB138
:1033C00083880B43838004E08388CC43A4B22340EA
:1033D000838010BD81817047014688897047A1F5BF
:1033E0007E42FF3A04D0028842F48072028004E0F8
:1033F00002884FF6FF631A400280704721B182882D
:1034000042F00402828004E082884FF6FB731A4087
:103410008280704702884FF2FF731A400280028850
:103420000A4302807047018841F48051018070474F
:1034300021B1028842F40052028004E002884DF675
:10344000FF731A400280704702460020012901D014
:10345000108B00E0908A70470146088A7047B1F5EA
:10346000804F04D1028842F48042028004E0028846
:103470004BF6FF731A400280704702460020138902
:103480000B4201D0012000E000207047202905D127
:103490000289028842F04002028007E0402901D000
:1034A000082901D1028901E0CA4302817047F0B5C1
:1034B0000246002000230024002501F00F0701260A
:1034C000BE40B3B20C110126A640B4B2968806EAFB
:1034D000040516891E4202D00DB1012000E0002033
:1034E000F0BD10B50022552905D10389038843F0AA
:1034F000400303800CE0562901D0532901D10389F0
:1035000006E001F00F040123A3409AB2D3430381E4
:1035100010BD000000C8FFBF704770477047754678
:1035200000F028F8AE4605006946534620F0070033
:10353000854618B020B5FEF73FFDBDE820404FF0AE
:1035400000064FF000074FF000084FF0000B21F08D
:103550000701AC46ACE8C009ACE8C009ACE8C0095A
:10356000ACE8C0098D4670470446AFF300802046A2
:10357000FCF727FE004870471000002003494FF079
:103580001800ABBE704700000900000026000200D2
:103590007047000000000000000000000000000074
:1035A000000000000000000000000000000000001B
:1035B000000000000000000000000000000000000B
:1035C00000000000000000000000000000000000FB
:1035D00000000000000000000000000000000000EB
:1035E0000000000E0000300E2380380EE384384EB9
:1035F000739C38FE7BBC1CFE3FB81CFF9FA00ECF07
:103600008F800FCFFFFE07CEFFFE03CE7FFE03FEAF
:103610000BA003FE3FB817BE7FFC3F067BBC3B0000
:10362000638C3C00FB803C00FF001E01FFF00F0F8D
:10363000FFFE07BFC1FE07FE01DC03F001C407FE69
:1036400001C00FFFFFC01F1FFFC03E01FFC03C00B5
:1036500001C0180001C00800018000000000000047
:103660000000000180000007C0700003E0700FFF41
:10367000F8700FFFFE700FFFFFF000E07FF000E03A
:1036800073F000E0707003FFF07003FFF07003FF51
:10369000F0700000007000E0003000E0003800E250
:1036A000003800E3FF3800E3FF3800E3FF3800E3B1
:1036B000873800E3803800E380381CE380383CE33F
:1036C000E0383CE3FFF83C03FFF81FFF9FF81FFFC3
:1036D00080080FFF80000003800000000000000051
:1036E0000000003000000078070000FE0700003FE7
:1036F000C700000FFF003FFFFFFE3FFFFFFE3FFF41
:10370000FFFE0000C7000003E7000007C700000736
:10371000870000020700000000003FFFFFF83FFFA6
:10372000FFF83FFFFFF8060E1C38060E1C38060E89
:103730001C38060E1C38060E1C38060E1C38060EE9
:103740001C38060E1C383FFFFFF83FFFFFF83FFF15
:10375000FFF8000000000000000000000000000072
:10376000000000300700007C0700007F0700001FFA
:10377000C7000007FF003FFFFFFE3FFFFFFE3FFFC8
:10378000FFFE0007C700000FC70000070700000486
:1037900007001FFFFFF81FFFFFF81FFFFFF81C6067
:1037A00000381C61C7381C61C7381C61C7381C61F0
:1037B000C7381C7FFF381C7FFF381C7FFF381C6117
:1037C000C7381C61C7381C61C7381C61C7381C6109
:1037D000C7381C6000381C000038000000000000E2
:1037E000086010187E30382E303F33301FF3F80158
:1037F000E3F80018300018003818047FFFFC3FFF82
:10380000FC181F000C3D8004ECC001CCF8038C7840
:103810000706300F04000E00000E00000C0000042C
:103820000000000000000000000000000000382040
:10383000801C61800F7980037C80106FC03023E092
:103840007032FEFFFEFE7FFECE0030E000306001F1
:1038500030600338600718600E10601E00401C00C6
:103860000000000000000000000000000000000058
:103870003800003E80001E4000006100003100045E
:1038800031801C19803C0F8000678601FFFE060313
:103890009C1E06C01C0CC00018C00038C00270C0BE
:1038A0000670001C60003C600038600000000000F2
:1038B000000000800001800001820009C20018E3BE
:1038C000007F633C3FFFFC08338C0E1980078100AA
:1038D00001F000207FF07FFFE07FF9301829B01859
:1038E0006DB00CCD9803EC980734180734000E0027
:1038F00000060000040000040000000000000000BA
:103900000000000410000FF0000FF0000E00000691
:1039100000000600000600000600F803FFF803FFA1
:10392000F803000003000003000003000003000090
:103930003F86001FFE0001FC0000000000000000A8
:103940000000000000000800000C00C00C20C00CAB
:1039500060C02C60C07C20C3FD3CDB357CDAF5F810
:10396000DAF7B0FFFFB05BD7B04B57F06F56DE6BA6
:10397000DE9E61FE1C607618602618E00618C00600
:10398000000006000002000000000000000000002F
:10399000000C0000FC000FFC001F0C200D0C20058B
:1039A000EC2004FFF0061FF0060430060430063F4A
:1039B000F80667F80666180666183C66183C06188E
:1039C0003FE6000FFE0000FE00000C0000000000BB
:1039D00000000000000000000000000000E0003FC8
:1039E000C003FFC007C060018C60018C60018C6067
:1039F00001FFE001FFE00186E000C62000C63001C3
:103A000086300F803007FF3001FFF0000FE000002C
:103A10004000000000000000000000000000000066
:103A20002000003000001000001802000C06000703
:103A3000060003870001E30000FB00003F80040F45
:103A4000FE0801FC7801003801803F01800FF980F9
:103A500003FF80003F800001000000000000000024
:103A600000000000000000000000003006000030F0
:103A70000E000C603C001FF0780C1FFC701C187FBF
:103A800080780007F0F020003E6030000200300037
:103A9000030018FFF3C01CFFE1F00CFFE4200E440C
:103AA00044200744442007C4442003444422007FA8
:103AB000FC26007FFC3E017FFC3C0144442803447B
:103AC0004420064446200E4447200EFFE7201CFFFA
:103AD000F7E03CC060F038000078000000300000E3
:103AE00000000000000000000000000000000600D0
:103AF0001000030010000180100000E010080070AA
:103B00001018003C1018001F1018000FD0180C03DC
:103B1000D0180C01901818011018380010187800EF
:103B200010183FFFF0181FFFF018000010180000D9
:103B3000101800001018000190180003101800075A
:103B40001018000E1018001C101C0078101C01F03A
:103B5000181803E01C1003C01C000000180000002F
:103B60001000000000000000200C00700C001FFC82
:103B7000381FFC7818004010000037000023E000D8
:103B800020FFF82003F86401186609186719186304
:103B9000B11861E10860F10861FF0C638F0C6300EC
:103BA000086200001000000000000000000000009B
:103BB0000000007FFFF07FFFF018001018001018C1
:103BC000001018FF10188310188310188310188322
:103BD0001018831018FF1018FF101800101800108C
:103BE0001800107FFFF07FFFF000000000000000D1
:103BF0000000000000000C00600C00700C181FFC9E
:103C0000781FFCE0100000300000200C806C0DF0EC
:103C1000670C7C63CC6861FC60603C60600FFC609A
:103C20000FFC67FC606FFC606C0C606C0C606F0CD0
:103C300060670C0020000000000000000000200071
:103C40003060807060803FFFFC3FFFFC0010800010
:103C50001880040480040800044C18044C38044400
:103C6000F80447D87FF3187FF3180447980446D820
:103C7000044C78044C18040C08040C0000000000EC
:103C800000000000000000000000007FFFC07FFF78
:103C9000C000004000004000004003F87C03F87CB6
:103CA00003084C03084003084003084003F840039E
:103CB000F8400000406000406000407FFFC03FFFD0
:103CC000C00000000000000000000000000000181C
:103CD000000018000018000018000018000018006C
:103CE00000180000180000187FFFF87FFFF80000A0
:103CF00018000018000618000E18001C18003818CC
:103D000000701800E01800401800001800000000C3
:103D10000000000000000000000000003000003043
:103D200000003000003000003000003000003000A3
:103D3000001000001000001000001000001800002B
:103D400018000018000018000018000018000018E3
:103D5000000018000000000000000000000000004B
:103D60000400000400000400000400800601800636
:103D700000800600800600800600800600800600A5
:103D8000C00600C00600C00600C00600C00600C095
:103D90000600000200000300000200000000000016
:103DA00000000000000000003000003000001000A3
:103DB000301038301010301010301010301010301B
:103DC0001010301010301010301010301010301053
:103DD000103010103010103010383010003010003B
:103DE00000300000000000000000000000000000A3
:103DF0004002006003002001C031CAE019FA780DCA
:103E0000923F0D9A3E079BD0439B90FFFF98FFFF88
:103E1000E000DB7806C91F0CC91E0CCFB81CC9F81E
:103E20000FE01803E0180000180000180000000060
:103E300000000000000400000E0010060030060024
:103E40001003FFF003FFF80319980119987FFFF89A
:103E50007FFFF83080181883480CCFC8071C400338
:103E6000F06001F060073E601E0FF03800F038008F
:103E70000010000010000010000000000000000012
:103E80000402001C06003C0C0C1F8C1803E07000A0
:103E90007C000004007FFF98FFFE700126E00136E1
:103EA000000137FF01B7FE11B20031B3806002E0BC
:103EB000FFFF781FFF180000000000000000000056
:103EC00000000000000000000010001C18000E1E82
:103ED000000F1F800DD9E00CE87E04781C049E00C2
:103EE0000787800F02000600C00000C01800C0381D
:103EF00000C07000C07800C01FE0C007FFE00003F2
:103F0000E0000000000000000000000000000000D1
:103F1000600300381E000F1C0003FC0400FFFC00BF
:103F20008CF80186000303800701E00001200000F7
:103F300020180020300020700030FFFFF03FFFF01D
:103F400000003000003000003000001000001000C1
:103F50000000000000000000800000E000003800C9
:103F6000000F800003FFFE007FFC0066000062007F
:103F70000062000062000062002023FFFFF3FC3FAC
:103F8000F300000300000300000300000300000131
:103F9000000000000000000000000911091989213B
:103FA000492149218A214921492149214921492180
:103FB00089218921492189218921492149194811CA
:103FC00049198A29CA31CA29CB31CB31CB29CA2117
:103FD0008A218B298B298B290D320D3ACD310D3257
:103FE0000E3A4E420D3A8B29CB31CB298A218921B9
:103FF000492149214921492149210819C710C810DF
:10400000C710C810C810C710C810C810C810C710F3
:10401000C810C810C810C810C710C710C8100811A1
:10402000C810C810C810081108110811081908197B
:104030000919091949194921492149218A218A2146
:104040008A29CB29CB29CB31CC310C3A0C3A4D42C1
:104050004D424D428E4A8E4ACE52CF520F5BD27B9A
:1040600036A5B7ADF8B539BE39BE39BE3ABE7BC646
:104070007AC67AC6BACEBBCEFCD6FCDEFCDEFDDE4E
:104080003CDF3DE73DE73DE77DE73DE77DE77EEF50
:104090007DEF7DE73DE73DE77DEF7DEF7EEF7EEF56
:1040A0007EEF7EEFBEF7BEF7BEF7BEF7BEF77EEF40
:1040B0007DEF7EEFBEF7BEF7BEF7BEF7BEF7BEF7E9
:1040C000BEF7BEF7BEF7BEF7BEF7BEF7BFF7BEF747
:1040D000BEF7BEF7BEF7BEF7BEF7BEF7BEF7BEF738
:1040E000BEF7FFFFFEFFFEFFBEF7BEF7BEF77EEF97
:1040F0007EEF7EEF7EEF7EEF7EEF7EEFBFF7BFF7C6
:10410000BFF77EEF3EEF3EEF3EEF3EE73DE73DE798
:104110003DE73DEF7EEF3DEF7EEF7EEF7EEF7EEF02
:104120007DEF7DEF3DE73DE73DE73DE77DE73DE79F
:104130003CE73DE73DE73CE7FCDEFCDEFCDEBCD6D1
:10414000BCD6BBD6BBD6BBCE7BCE7BCE7ACE3AC658
:10415000B7AD7384516B5063105B0F5BCF5ACF5276
:104160008E528E4A4D424D424C3A0C3A0C3ACC316A
:10417000CB31CB298B298B298A214A214A214A1903
:104180004919491949190919091909110911091177
:10419000091109110911091109110911091109114F
:1041A0000911091109110911C910C91008110811C3
:1041B0000811081108110911091109110911091132
:1041C00009190A190A194A190911C81009194A19AD
:1041D00009190911091109114A190A1909110911B5
:1041E00009110911091109110911091109110911FF
:1041F0000911C91009110911C91009110911091171
:10420000091949194A190911C91009110911091186
:104210000911091109110A190911C8080B3A2F844B
:10422000CD7BCD7BCD83CD7BCC7BCC7BCC7BCC7B4A
:10423000CC7BCC7BCC83CC734C5B0B4BCB3ACB3263
:10424000CB42CD6B6F8C8D6B0D634E630F5B5063F8
:1042500090635063105B91633484B68CB58C748426
:10426000926B926BD27350639063D2733274D27B31
:10427000327C327C337C3384327CCB39C7080819DA
:10428000C71008110811C8100811C810C710C810AD
:104290000811C810C810C810081108190811C81052
:1042A000C810C810081108190919081108190919A6
:1042B000091949194919492149214A218A218A297B
:1042C0008A29CB29CB31CC310C3A0C3A0D3A4D42EC
:1042D0004D428E4A8E4ACF52CF52CF52D17376A5DD
:1042E000B7B5F8B5F9BDF8BDF9BD39BE3AC67AC65D
:1042F0007AC6BACEBBCEBBD6BCD6FCDE3DDFFCDE7A
:104300003DE73DE73DE77DE77DE73DE77DEF7EEF7C
:104310007EEF7EEF7DE77DEF7DEF7DEF7EEF7EEF41
:10432000BEF77EEFBEF7BEF7BEF7BEF7BEF7BEF72D
:10433000BEF7BEF7BEF7BEF7BEF7BFF7BEF7BFF7D3
:10434000BEF7BEF7BEF7BFF7BEF7BEF7BEF7BEF7C4
:10435000BEF7BEF7BEF7BEF7BEF7BEF7FFF7FFFF2B
:10436000FFFFBFFFBFF7BEF77EEF7EEF7EEF7EEF72
:104370007FEF7FEF7FEF7FEF3EEF3EEF7EEF7FEF50
:104380007FEF3EE73EE73EEF3EE73EE73DE73DE7B6
:104390003DE73EE73DE73EE73EE73EEF3EEF3EE7E7
:1043A0003DE73EEF7EEF7EEF7EEF7EEF7DEF3CE779
:1043B0003CE73CE73DE73DE73DE7FCDEFCDEFCDEBD
:1043C000FCD6BBD6BCD6BBD6BBD6BBD6BBCE7ACE74
:1043D0007AC6B8AD327C50635063105B0F5BCF5A26
:1043E0008E528E4A8E4A4D424D424D3A0C3A0C3214
:1043F000CB31CB31CB298B298B298A218A214A21A8
:1044000049194919491949194A190A190A194A1918
:1044100009190919091909110911091109110911B4
:1044200009110911091109110911091108110811BE
:10443000081109110A1109110911091109110911AC
:104440000911091109190A190911081109114A1943
:104450004A194919091109114B218B29091109110F
:104460000911091109110919C810C91009110911F7
:104470000911091109110911C910091109110911AD
:104480000911091109110911091109110A194A190A
:104490000A190911091109110911C9080A3AAF9439
:1044A0002D8C2D8C2C8C6C8C2C8C6C8C6C8C2B8C8B
:1044B0002B8C6B8C2B7C0B4B0B330B3B0B3B0B4339
:1044C0000B430B434C534A428829093AC831C8313F
:1044D0008929C929093A0A3A4D420F53CF524C4211
:1044E000C9310A424C42892988294B3A4B3A8C42BD
:1044F0007384B494B48CB494B48C0B3A87080819C0
:10450000C710C810C810C810C810C810C710C810ED
:104510000811C810C8100811081908190811C81086
:10452000C810C8100811C810081909190919091963
:10453000091949194919492149214A218A298A29F0
:10454000CA29CB31CB31CC310C3A0C3A4D424D42D9
:104550004D4A8E4A8E4ACF52CF52916B36A5F8B54E
:10456000F8BDF9BDF8B5F8B5F9BD39C67AC67AC651
:10457000BACEBBD6BBD6BBD6BCD6FCDEFDDE3DE795
:104580003DE73DE73DE73DE73DE77DE77EEF7EEF39
:104590007EEF7DEF7DEF7DEF7DEF7EEF7DEF7DEFB9
:1045A0007EEFBEF7BEF7BEF7BEF7BEF7BEF7BEF7AB
:1045B000BEF7BEF7BEF7BEF7BEF7BFF7BFF7BFF750
:1045C000BFF7BFF7BEF7BEF7BFF7BFF7BEF7BEF73F
:1045D000BEF7BEF7BEF7BEF7BEF7FEFFFFFFFFFF59
:1045E000BEF77EEF7EEF7EEF3EEF3EEF7EEF7FEF9A
:1045F0003FEF7FEF7EEF3EEF3EEF3EEF3EEF3EE7D9
:104600003EE73EE73EE73EE73EE73EE73EE73EE782
:104610003EE73EE73EE73EE73EE73EEF3EEF3EE762
:104620003EE73EE73EE73EE77EEFBFF77EEF3DE742
:104630003CE73CE73CE73DE77EEF3DE7FCDE3DDF66
:10464000FCDEFCDEFCD6BBD6BBD6BBD6BBD6BACE18
:1046500039C63ABE77A5D173506350630F5BCF5A0A
:10466000CF528E4A8E4A8D424D424D3A0D3A0C320F
:10467000CB31CB31CB298B298B298A218A218A21E5
:104680004A214A194A214A214A194A194A194A19FA
:104690004A194A194A190A190A1909190911091155
:1046A00009110911C910C910091109110A11C910FC
:1046B000C810C910C91009110911C910091109112F
:1046C00009110911091109110911081109114A19D2
:1046D0008A2109110911091109110A190911091170
:1046E00009190911C910091909110911091109112B
:1046F00009110911091109110911091109110911EA
:104700000A110911091109110911091109198B213E
:10471000091109110911091109110A110A3A6E8CBE
:104720002C842C842C8CCB7B8B6B8B634B534B5B03
:10473000CB738B6BCA3ACB320B430B4B0B4B4B5BA4
:104740004B5B8C6B8C6B093A093A2B84CB830A63E5
:10475000C8314A6B6C8CCD834C6B0B634B42C931B7
:10476000CC7B6D8C6F8CCD7B8C734B6B895288218D
:10477000327CB48C7384B48C7384CB31860808117A
:10478000C810C810C810C8100811C810C810C81028
:10479000C810C810081108190811081108110811CB
:1047A0000819081108110811081909190919091916
:1047B00009194919492149214A218A218A29CA29E5
:1047C000CB310B320C320C3A0C3A4D424D424D4A31
:1047D0008E4A8E4ACF52CF524F63359DB8B5B7B58A
:1047E000B8B5F9BDF8BD39BE39BE39BE7ACEBACE3C
:1047F000BACEBBD6BBCEBBD6FCDEFDDEFDDE3DE7D2
:104800003DE73DE77DE77DEF7EEF7EEF7EEF7EEFDC
:104810007DEF7EEF7EEF7EEF7EEF7EEF7EEFBEF7E9
:10482000BEF7BEF7BEF7BEF7BEF7BEF7BEF7BEF7E0
:10483000BEF7BEF7BEF7BEF7BEF7BEF7BEF7BEF7D0
:10484000BEF7BEF7BEF7BEF7BEF7BFF7BEF7BEF7BF
:10485000BEF7BEF7BEF7BEF7BFF7FFFFFFFFBEF71D
:104860007EEF7EEF7EEF7EEF7EEF7FEF7EEF3EEF1F
:104870003EE73EEF7EEF7EEF7EEF3EEF3EEF3EEF18
:104880003EE73EE73EE73EE73EE73EE73EE73DE701
:104890003DE73EE73EE73DE73EE73EE73EE73EE7F2
:1048A0003DE73EE73EE73EE73EE73FEF3EE73EE7D8
:1048B0003DE73DE73DE73DE77DE77DEF3CE73DE751
:1048C000FCDEFCDEFCDEFCD6BBD6BAD6BBD6BACE4E
:1048D0007AC63AC63AC636A5916B10631063CF5AB2
:1048E000CF52CF4A8E4A8D424D424D424D3A0C3AFC
:1048F0000C32CB31CB31CB298B298B298A218A21D0
:104900008A218A218A218A218A214A214A214A1917
:104910004A194A194A194A194A194A190A190A19FF
:10492000091109110911091109110911C9100919F0
:104930000B3A8C4289210911091109110911091138
:10494000091109110911091109110911091149194F
:104950004A1908114A194A19C91009114A190A199C
:10496000C9100911091109114A214A19C810091160
:104970000911091109110911091109110911091167
:1049800009110911091109190911091109110A1946
:10499000091109110A190911C910C9080A3A6E8CBE
:1049A0002C846D8C2C7C0B430C33CB32CA32CB3233
:1049B0000B3BCB3ACB320B430B4B4B638B6B8B7369
:1049C0002B846C946D944A4AC8396B94CA8389527B
:1049D0004A6B2B94CB7B2C8CAE9CEFA42F8C6E8CD3
:1049E000EDA42C846E94AF942D8CAC9C8B7BC93140
:1049F000337CB4947384B48C748C0B32870809199B
:104A00000811C810C8100811C810C810C810081123
:104A1000C810C810C810C810C810C8100819491903
:104A2000492108110819091909190819081909193A
:104A3000491949214921492189218A21CC29CC318F
:104A4000CB31CB310C3A0C3A4D424D428E4A8E4A14
:104A5000CE4ACF52CF52105BB48CB8B577AD77AD9C
:104A6000F8B5F9BDF8B539BE3AC63AC6BBCEBBCE2D
:104A7000BBCEBBCEBBD6FCDEFCDEFCDE3CDF3DDFCE
:104A80003CDF3DE73DE77DE77DEF7EEF7DEF7DEFAE
:104A90007DEF7EEF7EEF7EEF7EEF7DEFBEF7BEF720
:104AA000BEF7BEF7BEF7BEF7BEF7BEF7BEF7BEF75E
:104AB000BEF7BEF7BEF7BEF7BFF7BEF7BEF7BEF74D
:104AC000BEF7BEF7BEF7BFF7BEF7BEF7BEF7BEF73D
:104AD000BEF7BEF7BEF7FFFFFFFFFFF77EF77EEFE3
:104AE0007FF77EF7BFF7BFF77EEF7EEF7EEF7EEFBB
:104AF0007EEF7EEFBFF7FFFFBFF77EEF7EEF3EEF6B
:104B00003EEF3EE73EE73EE73EEF3EEF3EE7FEE6A6
:104B1000FDE63EE73EE73EE7FDE63EE73EE73EE7F1
:104B2000FDE6FDE63EE73EEF3EE7FEE6FEDEFDDEAD
:104B30003EE77EEF7DE73CE73CE73DE73DE7FCDE17
:104B4000FCDEFCD6FCDEFCDEBBD6BBCEBBCEBBCED9
:104B5000BBD67AC639C63ABEF694506310630F5B73
:104B6000CF52CF528F4A8E4A8E424D424D3A0C3A26
:104B70000C320C32CB31CB31CB29CB298B298B2971
:104B80008B298B298A218A214A214A214A214B21BA
:104B90004B214A194B194A194A194A194A190A1933
:104BA0000A190911091109110911C8104921CD4A21
:104BB0004E5BB28472844821091109110811091150
:104BC000091109114A1909110911091109114A1983
:104BD0000911091109110919091109118B218B21D9
:104BE00009110A19091109114A194A190911091952
:104BF00009190A19091109110911091109110911D4
:104C00000911091109110911091109110911C91015
:104C100009110911091109110911C9080A3A6D8C04
:104C20002C84CC730B430B3B4B4B4B530B43CB3A7A
:104C3000CB3ACB3ACB3ACB424B530B4BCB42CB424A
:104C40000B53CB7B2C8C494289526C948A7BCB7B57
:104C50002B8C0A6B8A528A520C63AF9CAEA46E9C5A
:104C60006D948D7B8E738E730B6B8A83096B892990
:104C7000337CB4947384B48C738C0B32870808191A
:104C8000C810C810C810C810C8100811C810C81023
:104C9000C810C81008190811C810C81008194919F7
:104CA0000919081108190919091909190919091106
:104CB000081949214A214A218A298A31CB318A2976
:104CC0008A298A210D3A4D424D428E4A8E4ACE4A59
:104CD0000F530F530F5B337CB8B5B8AD76A5B7ADA6
:104CE00039BEF9BD3ABE3AC67BCEBBCEBBD6BBD62B
:104CF000BBD6BCD6BCD6FCDEFCDE3CDF3CE73DE7E9
:104D00003DE73DE73DE77DE77DEF7DEF7DE77DEF2B
:104D10007DEF7DEF7DEF7EEF7EEF7EEF7EEF7DEF2F
:104D2000BEF7BEF7BEF7BEF7BEF7BEF7BEF7BEF7DB
:104D3000BEF7BEF7BEF7BFF7BFF7BEF7BEF7BEF7C9
:104D4000BEF7BFF7BEF7BEF7BEF7BFF7BEF7BEF7B9
:104D5000BEF7BEF7BEF7FFFFBEF77EEF7EEF7FEF39
:104D6000BFF7BEF77EEF7EE77EE77EEF7EEF7EEF5A
:104D70007EEFBEEFBFF7BFF7BEF7BFF77EEF3EEFA8
:104D80003EEF3EEF3EE73EE73EE73EE73EE73EE7EB
:104D9000FEE6FEE63EE7FEE6FDE6FEE63EE7FEE672
:104DA000FDE6FDE63EE73EE73EE7FEE6FDDEFDDE34
:104DB0003DE73DE73DE73DE73DE73DE73DE7FDDE1C
:104DC000FCDEFCDEFBDEFBDEFCD6BBD6BCD6BBD6F7
:104DD000BBCEBBCE7AC63AC6F9B53384105B105B46
:104DE0000F53CF528F4A8E4A8E4A4D424D420C3A53
:104DF0000C3A0C32CC31CB31CB31CB31CB31CB294E
:104E00008B298B298B294B218B218B218B218B216A
:104E10004B214B214B214B194A194A194A194A195E
:104E20004A19491949114911080948190E5B8B4A59
:104E300043088F6B38C64B3AC8084911081109114D
:104E4000C9100911091909110911091109110911CB
:104E50000A190919C9100911091109110A190919A1
:104E60000911091109110A19C91009110A194A1958
:104E7000091909110911091109110911091109115A
:104E80000911091109110911091109110911091152
:104E9000091109110911C9100911C808093A6D94BD
:104EA000CB7B4B5B8B638B738A634B530B3BCB3A54
:104EB0000B430C4BCB3ACB42CB3ACA420B4B0B4B7E
:104EC000CB420B53CB7B4A4A093A8B73CA8BCB8BB1
:104ED000CB83CB83CA832B8C6E94AF9C2E8C8D732B
:104EE0006E9C6E946F942D8CCB83CB8B4A6B482138
:104EF000CD4A738C738CB48C748C0B328708081178
:104F0000C810C810C810C810C810C810C810C810E1
:104F1000C810C81008194919C810C810C8100811BD
:104F2000C810C8100811081909194A194911491956
:104F30000B3249214A218B298A29492948290B3AD0
:104F40008E420C324D424D4A8E4ACE52CF520F53B2
:104F50000F5B0F5BD27377A5B8B576AD77ADF9BDB2
:104F6000F8B5F9BD7AC63AC67AC6BBCEBBD6BBCEBB
:104F7000BBD6BBD6FCD6FCDEFBDEFCDE3CDF3DE771
:104F80003DE73DE77DE77DEF7DEF7DEF7DEF7EEF58
:104F90007DEF7EEFBEEF7EEFBEEFBEF77EEFBEF79A
:104FA000BEF7BEF7BEF7BEF7BEF7BEF7BEF7BEF759
:104FB000BEF7BFF7BFF7BFF7FFFFBFF7BFF7BEF7FB
:104FC000BFF7BFF7BFF7BEF7BEF7BFF7BEF7BEF735
:104FD000BEF7BEF7FFFFBFF77EEF7EEF7EEF7EEFFF
:104FE000BFF77EEF3EE77EEF7EEF7EEF7DE73DE7AA
:104FF0007EEF7EEF7EEFBEEFBEF77EEF7EEF3EE709
:105000003EE73EE73EE73EE73EE7FDE6FEE6FEDE44
:10501000FDDEFDDEFEDEFDDEFDDEFDDEFDDEFDDEB7
:10502000FDDE3EE73EE7FDE6FDDEFEDE3EE7FDDEC1
:10503000FDDEFDDEFDDE3DE73EE7FDE63DE7FDDEB4
:10504000FCDE3DE73CE7FBDEFCDEFCDEBCD6FCD64E
:10505000BBCE7BCE7BCE7AC63AC6B7ADD1730F5BE3
:105060000F5BCF52CF4A8F4A8E4A4E424D424D423D
:105070004D3A0C3A0C32CC31CC31CC31CB29CB2946
:105080008B298B298B298B298B218B218B218B21A0
:105090008B218B218B218B218B214B214B214A1979
:1050A0004A194A194A190A1108118D4ACC520000AE
:1050B00000008A4AF7BD906BC710491949110911C0
:1050C0000A190911091109190911091109110911FF
:1050D0000911091109110911091109110911091100
:1050E0000911C91009114A190919C9100911091121
:1050F00009110911091109110911091109110A19D7
:10510000091909114A190911091109110911C910BF
:10511000C9100911091109110911C8080A3A6D8C41
:10512000CB832B8C2B8C4B5B0B43CB3A0B3B0B4336
:105130000C434C4BCB42CB420B438A6BCA83CA73A2
:105140008A630A538B638A4A48214A6BCB8B4B7321
:10515000CC8B4B738A83CB8BCE83CF7BCC5A8B5239
:10516000EFAC8E7B0D630B63CA628A838B83C83975
:1051700089293384B48CB48C748C0C3A8708081950
:10518000C8100811C810C810C810C810C8100811DD
:10519000C810C810081149210819C81008110811B1
:1051A0000811081108190819492149190611CD5289
:1051B000327CC8184A2149214921CC299163F68CB7
:1051C000115B0B3A8D4ACE520F5B0F5B0F5B105B8E
:1051D000105B916B369DF8B5B7AD77ADF8BDF8BDF6
:1051E00039BE7BCE7BCE7AC67AC6BBCEBBD6BBCE13
:1051F000FCD6BCD6FCD6FBD6FCDEFCDE3CDF3DE7B5
:105200003DE73DE73DE73DE77DE77DE77EEF7DEF6D
:105210007DE77DEF7EEF7EEFBEEFBEF7BEF7BEF718
:10522000BEF7BEF7BEF7BEF7BEF7BEF7BEF7BEF7D6
:10523000BEF7BEF7FFFFFFFFBFF7BFF7BEF7BEF732
:10524000BEF7FFFFBEF7BEF7BEF7BEF7BFF7BFF76B
:10525000BEF7FFFFBFF77EEF7FEF7EEF7EEFBEF77B
:10526000BFF77EEF3EE77EE73EE77EEF7EEFBEEFE5
:105270007EEF7DE73DE73DE77FF7BFF7BEF77EEFC7
:105280003DE73EE73EE73DE73EE73DE7FEDEFEDE8B
:10529000FDDEFDDEFDDEFDDEFDDEFDDEFDDEFDDE36
:1052A000FDE63EE7FDE6FDDEFDDEFDDE3EE73DDF41
:1052B000FCD6BBD6FDDEFDDE3EE7FDDE3DE73EE78C
:1052C000FCDE3DE77DE7FCDEBBD6BCD6BCD6FCDE13
:1052D000BBD67AC67AC67AC67AC639BE369D506BB8
:1052E0000F5B105BCF52CF4A8E4A8E4A4D424D42E1
:1052F0004D3A0D3A0C3A0C32CC31CC31CB31CB316A
:105300008B298B298B298B298B298B218B218B290D
:105310008C298C298C298C298C298C298C218C21F5
:105320004B214A194A1909110C3A0D634108000032
:105330000000052135ADB39449210911081109195F
:105340004A190A1909194A190911091109110911EA
:1053500009110911091109110A1909110911091174
:105360000911C910091109110911C91009110911EF
:105370000911091109110911091109110911091955
:105380000A1909110919091109110911091109113C
:10539000C910091109110911091188080A3A6D8CFF
:1053A000CB832B844B53CB320C430C430B43CB426C
:1053B0000B430C4B0B43CB420B430B4B4A6B2A8CDE
:1053C0002A8C2A84CB7B093A494A6C9C4B7BCB6262
:1053D000CC838B838B83CB8B2E946F940C634B4A43
:1053E0006E942C8CCC93CB8B8A834A7BCB8B0A6BB1
:1053F000CA317384B48C738C73840B3A8708081198
:10540000C8100819C810C810C810C810C810081152
:10541000C810C81008110811081108110811081146
:1054200008110819071148214C42C610094AB6C58F
:105430008D528708CB318C42D173B8BD77D6CF7BE4
:1054400049294C42CE52CE5A8D520F5B5163506364
:10545000906BB48CB8AD76ADB7B5F8BDF8BD39BEBC
:105460007AC67BCE7AC639C67ACEBACEBBD6BCD681
:10547000BBD6BCD6FCD6FCDEFCDEFBD6FCDE3DE7B4
:105480003DE73DE73DE77DE77DE77DEF7EEF7EEFA2
:105490007DEF7DEF7EEF7EEF7EEFBEF7BEF7BEF7CE
:1054A000BEF7BEF7BEF7BEF7BEF7BEF7BEF7BEF754
:1054B000BFF7BEF7BFF7BFF7BFF7BFF7FFFFBEF7F6
:1054C000BEF7BFF7BFF7BEF7BEF7BEF7BFF7FFFFE8
:1054D000FFFFBEF73EEF7EEF3FEF7EEF7EEF7EEF0A
:1054E0007EEF3EEF3EE73EE73DE77EEFBEF7FFFF94
:1054F000BEF77EEF7EE73DE77EEFBFF7BFF7BFF772
:105500007EEFFDE63DE73DE7FDE6FDE63DDFFEDE45
:10551000FDDEFDDEFDDEFDDEFDDEFDDEFDDEFDDEB3
:10552000FDE6FDDEFDDEFDDEFEE6FCDEFCD6FCD6A5
:10553000BBD6FCD63DE7FDDEBCD6BBD6FDE67FEF95
:10554000FDDEBBD6FCDEFBDEBBD6BBD6BBD6BCD6F7
:10555000BBD6BBCEBBCE7AC67AC67AC639BEB48CB1
:105560000F5B105BCF52CF528F4A8E4A8E424D4214
:105570004D424D3A0D3A0C3ACC31CC31CC31CB3195
:10558000CB29CB298B29CB29CB29CB29CC29CC29B9
:10559000CC29CC31CD29CD29CD31CD29CD298C298E
:1055A0008C218B214A19CC294F63452900008208A0
:1055B000000042083084B6B50B3AC91049190911E8
:1055C00009110911091109190A19091109110911FA
:1055D0000911091109110A190911091109190A19E1
:1055E0000A194A190A190911091109110911091190
:1055F000091109114A19091909110911091109118A
:1056000009110919091109110919091109110911BA
:105610000911091109110911C9100911093A6C8CF4
:10562000CB834B5B0B3B0C4B0B4B0B530B4BCB42D2
:105630000C4B0C430B4B095B49630B530C434B5B0B
:10564000C97B2A8C2B8C4942494ACB8B4B7BCA6243
:105650008B8B4A7BCA628B838C7B4D6BCB5A8A5275
:105660008B528A5A8B83094A4952895A4A730A6B68
:10567000C9297384B48C748C7384CB31C708081126
:10568000C8100811C810081108110811C810C81056
:10569000C810C818C81809110911091108110811F2
:1056A00048194819C5108B4A4F5B4729F1BC6FB4A4
:1056B0000729506BB7B5BAE6B9F6F4EDAEB4C641FA
:1056C0004B3A50634F6BC939CA399273916B9173DE
:1056D0007484B7ADF8B5F8B539C639BE39BE3AC627
:1056E0003AC67AC639C67AC6BACE7ACEBBD6BBD649
:1056F000BBD6BCD6BBD6FCDEFBD6FCDEFBDEFCDEBE
:105700003CE77DE73DE77DE77DE73DE77DEFBEEFE9
:105710007EEFBEEFBEEF7EEFBEEFBEF7BEF7BEF789
:10572000BEF7BEF7BEF7BEF7BEF7BEF7BEF7BFF7D0
:10573000BFF7BEF7BEF7BEF7BFF7FFFFBEF7BFF775
:10574000FFFFBFF7BEF7BFF7BEF7BFFFFFFFBFFF0B
:10575000BFF77EEF7EEF3EEF3EE77EEF7EEF3DE769
:105760007DE73EEF3EE77EE77EEF7EEF7EEFBFF721
:10577000BFF77EEF7EEF7EEF7EEF3EEF7EEF7EEFB8
:105780003EEFFDDE3DE7FDDEFDDEFDDEFDDEFDDEA6
:10579000FDDEFDDEFDDEFDDEFDDEFDDE3DDFFDDEF0
:1057A000FDDEFDDEFDDEBCDEFDDEFCDEBCD6BBCEFE
:1057B000BBD6FCDE3DE73DE7BCD67BCEFCDE7FEF13
:1057C000FCDEFCD63CE73CDFFCD6BBD6BBD6BBD66A
:1057D000FCDEFCDEBBD67AC67ACE7AC63AC6B8AD57
:1057E000D2730F5B105BCF52CF528E4A8E4A4E421D
:1057F0004D424D420D3A0C3A0C3A0C32CC31CC3180
:10580000CC31CC31CC31CC31CC31CC310D320D322C
:105810000D320E3A0E3A0E3A0E3A0E320E32CD31AB
:10582000CD318C298B290F5B4A4A00004108410089
:1058300000000000CB5AF8BD0E5B08114A19081190
:10584000091109190911091109194A190911091927
:105850000A19091109110A19091109114A194A19D4
:105860000A19CC294A21091109190A190911091122
:10587000C91009114A190A19091109110911091147
:1058800009110911091109114A19091109110911FF
:10589000091109110911091109110A19093A6C8C28
:1058A0008B630B3B0C4B0B4B8B638A730B4B0B4B80
:1058B000495B495B4863C583C68BC97B4D530C4B21
:1058C0004A5B2A8C2B8C8A4A48218A5A4A83CA62AC
:1058D0008B8B4A830A6B8A834B7BCB6ACB628C832C
:1058E0000B6B895A8B8349524B7B0A730A6B0A6B89
:1058F000CA317384738CB48C73840B328708081993
:10590000C810C810C810C8100819081108110811CB
:10591000C810C8100819C710C608C710C818081939
:105920008929C929C72935AD7384709C2EDD88A3C8
:105930006FB477F634FEEEDC6BD42DDD2F94CC52B1
:10594000B1A4B3ACCD62C9399373D373917333846B
:1059500077ADF8B5F8B539BE7BC63ABE3AC63AC699
:105960007BCE7BCE7ACE7ACE7ACEBBD6BBCEBBCE2A
:10597000BBD6BBD6BBD6BCD6FCDEBBD6BBD6FBDE0D
:10598000FCDE3DE73DE73CDF3CE73DE77DEFBEEF7A
:10599000BEEFBEEFBEF7BEF7BEF7BEF7BEF7BEF76F
:1059A000BEF7BEF7BEF7BEF7BFF7BEF7BEF7BFF74D
:1059B000BEF7BEF7BEF7BEF7BFF7FFFFBFF7BFF7F3
:1059C000FFFFBFF7BEF7BFF7BFF7FFFFFFFFBFF750
:1059D0007EEF3EEF3EE73EE77EE77EEF7DEF7DE741
:1059E0007EEF3EE73EE77EE77EE73DE73EEF7EEF78
:1059F0007EEF7EEFBFF7FFFFBEF73DE73DE73DE7F8
:105A0000FDDEFDDE3DDF3DDFFDDEFDDEFDDEFDDE3C
:105A1000FDDEFDDEFDDEFDDEFDDE3DE7FDDEFCDE66
:105A2000FCDEFCDEBCD6BCD6BCD6BBD6BBD6BCD658
:105A3000BBD6BBD6BBD6FBD6FCDEFCDEFCD63DE738
:105A4000FCD6BBD63DE73DE7FCDEBCD6BBD6BBD61D
:105A5000FCDE3DDFFBD67AC67AC67AC63ABEF9BD11
:105A6000369D5063105B0F53CF528F4A8E4A4E4A79
:105A70008D424D424D3A0C3A0C3A0C32CC31CC317D
:105A8000CC31CD310C320D320D320E3A4E3A4E3A07
:105A90004F424F428F428F428F424F424F424E3AC7
:105AA0000E32CD298E4A4F6B41080000410801009B
:105AB000410000008731B6AD727C48190A11081107
:105AC00009110919091109110911091909110911F6
:105AD000091109110A190911091109190A190911DC
